:40000000021ED4008F828E83E0540100000070F82278FFE4F6D8FD021F320203DBE86480F8E933E83360110460F0ED33EC337009E8FCE9FDEAFEEBFF220460DED3EB9FEAD3
:400040009EE99DE8C2E78CF0C2F795F0400CE8CCF8E9CDF9EACEFAEBCFFB1203A685D0F05804700320D5B3E80470075002B2D50203E592D5EC0460F7E4CCC0E0C398F860B5
:400080003B94186008400DD0E0FB0203BDE4FBFAC9FC8028E830E406E4C9FBE4CAFCE830E305E4C9CACBFCE854076010F8C3E913F9EA13FAEB13FBEC13FCD8F130F52FC331
:4000C000E49CFCEF9BFFEE9AFEED99FDD0E0FBEF4E4D4C701222DB030203E2EC2CFCEF33FFEE33FEED33FDED30E7EB0203BDEF2BFFEE3AFEED39FDD0E0FB50130BBB0003AD
:400100000203E5ED13FDEE13FEEF13FFEC13FC0203BDEC4D6011E8497017ED33EC3304600DE4FCFFFEFD22E933E8330470F80203DB1203A658046009E4CC248150062850E7
:40014000090203E52840030203E2C0E0EB4A7044B98006D0E0FB0203D1EF4E701CBD8008EBFFEAFEE9FD80EBE98DF0A4FEE5F00201FBE9CDF9EAFEEBFFEF89F0A4FCE5F087
:40018000CE89F0A42EFFE435F0CD89F0A42DFEE435F08067EF4E7005BD80D780C3EF8BF0A4ACF0EE8BF0A42CFCE435F0F8EF8AF0A42CE5F038FCE433CB8DF0A42CFCE5F0EE
:4001C0003BF8EE8AF0A42CFCE5F038F8E433CF89F0A42CFCE5F038CF3400CE89F0A42FFFE5F03EFEE433C98DF0A42EFEE5F039CD8AF0A42FFFE5F03EFEE43DFD33D0E0FBCD
:4002000050070BBB000F0203E5EC2CFCEF33FFEE33FEED33FD0203BD0203E5EC5D046005E8590470030203DB1203A6580460F6EC4860F2EC7004FDFEFF22C860DB2481C862
:400240005009C398600250060203E29850CAF582E9294B4A7005AB820203D175F0007C1A7880C3EF9BEE9AED99400DC3EF9BFFEE9AFEED99FDE842F0DC23ACF0D0E0FFD0BF
:40028000E0FED0E0FDAB8220E7101BEB60BAEC2CFCEF33FFEE33FEED33FD0203BDE803F830E705C0F075F000EF2FFFEE33FEED33FD40B830E7C280AA74F8CC6480CCC864A0
:4002C00080C8F58204604FC3EB9FF5F0EA9E42F0E99D42F0E89C45F0603C501DE5825FFFE582D313CB5BCBF42B5582FB50280ABA002409B9002008801DE5825BFBE582D354
:4003000013CF5FCFF4C3132F5582FF50090EBE00050DBD00010CC3EB9FF5F0EA9E42F0E99D42F0E89C45F06007CC4820E701B3EC2275F020800E75F010800575F0087D0045
:400340007E007F003392D530D50312077EEC334010EF33FFEE33FEED33FDEC33FCD5F0ED22E5F0247EA2D513CC92E7CDCEFF22EDD2E7CD33EC3392D524814006E4FFFEFD95
:40038000FC22FCE4CFCECDCC24E0501174FF80EDC3CC13CCCD13CDCE13CECF13CF0470F030D5DE02077EE9D2E7C933E833F892D5EDD2E7CD33EC33FC5002B2D522EC30E7A4
:4003C000100FBF000C0EBE00080DBD00040BEB6014A2D5EB13FCED92E7FD2274FFFCFDFEFF22E480F8A2D574FF13FC7D80E480EFF920E73624F950037907E4F42402FBE5DD
:4004000082158270021583DBF6E024FB501BE96014E4F0E582158270021583E004F0B40A08E4F0D9EE7401F00A22C2D522ED33EC3392D5FA602AB4FF33EDC2E77BFF600620
:400440007A047952E4227A04795B20D5047A047956224E614E002B494E46002D494E4600E47A08F0A3DAFC7B00740722C083C082ECC0E0EDC0E0EEC0E0EFC0E0EA75F01063
:40048000A4CAABF075F04DA42BFBE435F0FCEA2410FAEB34C5FBEC34D9FCEDC2E7FF75F056A4F42411C5F0F434C58FF0A42AE5F03BE43CF020E714120562D0E0FFD0E0FEA9
:4004C000D0E0FDD0E0FC12021B8014F404120562D0E0FFD0E0FED0E0FDD0E0FC120112D082D083E0FAEDD2E7CD33EC332482FBE4C3CF33CFCE33CECD33CD33DBF37B0775A3
:40050000F00A846004F0A31B0AE5F0F0A38FF0740AA4FFACF08EF0740AA42CFEACF050010C8DF0740AA42CFDE435F0F0A3DBDE7407223F8000004120000042C80000447A18
:400540000000461C400047C35000497424004B1896804CBEBC205A0E1BCA6753C21C749DC5AEFB60065407601C2323120590EB5438600912057C12058B120112ECF8EDF9AD
:40058000EEFAEFCB22EB12058B80F1543803241C900532FE93FC0EEE93FD0EEE930ECE93FF22BB010689828A83E0225002E722BBFE02E32289828A83E49322BB010CE582D4
:4005C00029F582E5833AF583E0225006E92582F8E622BBFE06E92582F8E222E58229F582E5833AF583E49322BB010689828A83F0225002F722BBFE01F322EF8DF0A4A8F086
:40060000CF8CF0A428CE8DF0A42EFE22BC000BBE0029EF8DF084FFADF022E4CCF875F008EF2FFFEE33FEEC33FCEE9DEC984005FCEE9DFE0FD5F0E9E4CEFD22EDF8F5F0EE7F
:400640008420D21CFEADF075F008EF2FFFED33FD4007985006D5F0F222C398FD0FD5F0EA22E88FF0A4CC8BF0A42CFCE98EF0A42CFC8AF0EDA42CFCEA8EF0A4CDA8F08BF0F0
:40068000A42DCC3825F0FDE98FF0A42CCD35F0FCEB8EF0A4FEA9F0EB8FF0A4CFC5F02ECD39FEE43CFCEAA42DCE35F0FDE43CFC2275F008758200EF2FFFEE33FECD33CDCC87
:4006C00033CCC58233C5829BED9AEC99E58298400CF582EE9BFEED9AFDEC99FC0FD5F0D6E4CEFBE4CDFAE4CCF9A88222B800C1B90059BA002DEC8BF084CFCECDFCE5F0CBEB
:40070000F97818EF2FFFEE33FEED33FDEC33FCEB33FB10D703994004EB99FB0FD8E5E4F9FA227818EF2FFFEE33FEED33FDEC33FCC933C910D7059BE99A4007EC9BFCE99A78
:40074000F90FD8E0E4C9FAE4CCFB2275F010EF2FFFEE33FEED33FDCC33CCC833C810D7079BEC9AE899400AED9BFDEC9AFCE899F80FD5F0DAE4CDFBE4CCFAE4C8F922C3E41D
:400780009FFFE49EFEE49DFDE49CFC22EB9FF5F0EA9E42F0E99D42F0E89C45F022E8600FECC313FCED13FDEE13FEEF13FFD8F122E8600FEFC333FFEE33FEED33FDEC33FCB4
:4007C000D8F122E0FCA3E0FDA3E0FEA3E0FF22E0F8A3E0F9A3E0FAA3E0FB22ECF0A3EDF0A3EEF0A3EFF022F8E0FBA3A3E0F925F0F0E582158270021583E0FA38F022EBF09D
:40080000A3EAF0A3E9F022D083D082F8E4937012740193700DA3A393F8740193F5828883E4737402936860EFA3A3A380DFE5112582F582E5103583F583B51004858211228C
:4008400010AF06858211F51022858211F510D2AF22EC8EF0A4CCC5F0CCCDF8EFA4CEC5F02DFDE43CFCE8A42EC8C5F03DFDE43CFCEFA4FFE5F028FEE43DFDE43CFC22E709D2
:40088000F608DFFA8046E709F208DFFA803E88828C83E709F0A3DFFA8032E309F608DFFA806EE309F208DFFA806688828C83E309F0A3DFFA805A89828A83E0A3F608DFFAE0
:4008C000804E89828A83E0A3F208DFFA804280D280FA80C680D4805580F28029801080A680EA809A80A880DA80E280CA802988848C8589828A83E493A30586F0A30586DFBC
:40090000F5DEF3800B89828A83E493A3F608DFF9ECFAA9F0EDFB2288848C8589828A83E0A30586F0A30586DFF6DEF480E389828A83E493A3F208DFF980D688F0EF60010E3A
:400940004E60CD88F0ED2402B4040050C3F582EB2402B4040050B923234582239008CE73E5082432F582E43400F583E005082290002F300703900032E475F0011207E702F4
:4009800005A22000E97F2ED2008018EF540F2490D43440D4FF30040BEF24BFB41A0050032461FFE50960021509050CE50C7002050B30070E90002FE475F0011207E7EF0268
:4009C00005E80233697403D2078003E4C207F50890002F1207FEE4F509F50BF50CE50960077F201209A380F5750AFFC201C200C202C203C205C206C20812096FFF700D30F4
:400A000007057F001209B4AF0CAE0B22B4255FC2D5C20412096FFF24D0B40A00501A75F00A780930D50508B6FF0106C6A426F620D5047002D20380D924CFB41A00EF5004AB
:400A4000C2E5D204020CA6D20180C6D20080C0D20280BCD2D580BAD20580B47F201209A32002077401B5090040F1120960FF1209A30209DDD208D2068095120960FB1209BC
:400A800060FA120960F94A4B700679A47A0D7BFF20022EE509602A7E008E827583001205BB60060EEE650A70F0C2D5EBC0E0EAC0E0E9C0E0EE120D07D0E0F9D0E0FAD0E0A2
:400AC000FB1205A2FF60AAEBC0E0EAC0E0E9C0E01209A3D0E02401F9D0E03400FAD0E0FBE50A0460DCD50AD98087D20280A2120CE960F7E50A7001041203F0A90A600DE5D6
:400B00000A600914F50A120D91EF60F3EA30E702F404C3995079EAF4250A0430E701E404F50A800D120CE960C1EA050A250A1203F0EA90005EF030E701E4250A04D50A0451
:400B400020050114120D07E4C0E0120D9190005EE0601320E70714F012098B802204F0D0E014C0E07F0012098BE50A6007120982150A800B300503120982D0E00209DDD0EF
:400B8000E00480C4120CE9609EE50A041203F090005EEAF0E50A2005026001042404120D0774FF04C0E0120D9112098BE50A2005026003120982D0E0B50AE87F4512099531
:400BC00090005EE07F2B30E7047F2DF404C0E01209A3D0E075F00A84C0F012098CD0E012098C0209DD791080027908C206C2088008D2D5790A8004790AC2D5E50A04700254
:400C0000F50AE4FAFDFEFF120960FC7B08200113120960FD7B1030000A120960FE120960FF7B20EC3382D592D55013C3E43000069FFFE49EFEE42001039DFDE49CFCE4CBDC
:400C4000F8C201EC700CCFCECDCCE824F8F870F38017C3EF33FFEE33FEED33FDEC33FCEB33FB994002FB0FD8E9EB300105F8D0E0C448B201C0E00AEC4D4E4F78207B0070A0
:400C8000C2EAB50A0040BCC0E0120D09D0F0D0E0200104C4C0E0C4B201C0F012098CD0F0D5F0EB0209DD1208070A7A530BE5580A4B4C0A47420BE94F0BF1440BF1490A6040
:400CC000430BF7550B24460B84450AEE470DC4500A4F2D0A532E0A762B0A57230A74200DAD2A0A0F4800000A6EE50AB4FF03750A06120960FC120960FD120960FE12096009
:400D0000FF90005702042D790AA2D5200314300509B910020404B9080104A2D52006025001042002689202B509005034C0E07F203003197F30A20272067205500F120D6093
:400D4000C202C206C205C2087F30800F300503E9C0E01209A3300503D0E0F9D0E0B509CC3005177F30B9100C1209A37F583004077F788003B908031209A33002057F2D02FD
:400D800009A37F202008F87F2B2006F322920280CF7F00B40700500B2457F582E43400F583E0FF22286E756C6C2900D2011209603001F8C201780930D50108F6020A0F2DD5
:400DC000504349581209602403B405004001E4900DBF93120994743A120994D203750904020BE5900151EFF0900151E0FFEF903E4893FF90015AEFF090015AE0FF74C02FEB
:400E0000F582E43400F583E0FF90015BEFF0900151E0FFEF25E024D9F582E43400F583E0FEA3E0FF900158EEF0A3EFF0900151E0FFEF25E024A8F582E43400F583E0FEA396
:400E4000E0FF900158E0FCA3E0FDC3ED9FEC9E4035900151E0FFEF25E024A8F582E43400F583E0FEA3E0FF900158E0FCA3E0FDC3ED9FFFEC9EFE900156EEF0A3EFF0900125
:400E80005A7401F08032900151E0FFEF25E024A8F582E43400F583E0FEA3E0FF900158E0FCA3E0FDC3EF9DFFEE9CFE900156EEF0A3EFF090015AE4F090015AE0FFEF705936
:400EC000900156E0FEA3E0FFD3EF9414EE94004048900151E0FF74A12FF582E43400F583E0FFEFC39405401C900151E0FF122893900151E0FF74A12FF582E43400F583E427
:400F0000F0021079900151E0FF74A12FF582E43400F583E004F002107990015BE0FF7E00900156E0FCA3E0FDD3ED9FEC9E401F900156E0FEA3E0FFC3EF9414EE9400400391
:400F400002107990015AE0FFEF6003021079900151E0FFEF25E024A8F582E43400F583E0FEA3E0FFE4FCFD78081207B09001521207DB900152E0F8A3E0F9A3E0FAA3E0FB28
:400F8000900151E0FF74C62FF582E43400F583E0FFE4FCFDFEEB4FFFEA4EFEE94DFDE84CFC9001521207DB900152E0F8A3E0F9A3E0FAA3E0FB900158E0FEA3E0FFE4FCFD45
:400FC000EB2FFFEA3EFEE93DFDE83CFC9001521207DB900152E0FCA3E0FDA3E0FEA3E0FFC004C005C006C007900151E0FFEF25E024A8F582E43400F583E0FEA3E0FFAB07A6
:40100000AA06E4F9F8D007D006D005D004C3EF9BFFEE9AFEED99FDEC98FC9001521207DB900152E0FCA3E0FDA3E0FEA3E0FF780812079D900151E0FDED25E024A8F582E4D9
:401040003400F583EEF0A3EFF0900152E0FCA3E0FDA3E0FEA3E0FF900151E0FE74C62EF582E43400F583EFF0900151E0FF74A12FF582E43400F583E4F090015BE0FF7E00EB
:40108000900156E0FCA3E0FDD3ED9FEC9E404690015AE0FFEF603E900156E0FEA3E0FFD3EF94FFEE94004013900151E0FF74D02FF582E43400F58374FFF022900156E0FE31
:4010C000A3E0FF900151E0FE74D02EF582E43400F583EFF022900151E0FF74D02FF582E43400F583E4F0229000F4EFF09000F5EDF09000F6EBF09000F5E0FF74D02FF9E429
:401100003400FA7B01900105EBF0A3EAF0A3E9F09000F4E0FFEF14FF9000FAEFF09000F4E0FFEF04FF9000FBEFF0900105E0FBA3E0FAA3E0F99000F4E0FFE92FF9E43AFA18
:401140001205A2FF9000CEEFF09000F4E0FFEF70279000CDE4F0900105E0FBA3E0FAA3E0F99000FBE0FFE92FF9E43AFA1205A2FF9000CFEFF00211FA9000F6E0FF7E00EF8E
:4011800024FFFFEE34FFFE9000F4E0FD7C00EFB5052AEEB50426900105E0FBA3E0FAA3E0F99000FAE0FFE92FF9E43AFA1205A2FF9000CDEFF09000CFE4F0803E900105E01A
:4011C000FBA3E0FAA3E0F99000FAE0FFE92FF9E43AFA1205A2FF9000CDEFF0900105E0FBA3E0FAA3E0F99000FBE0FFE92FF9E43AFA1205A2FF9000CFEFF09000F9E0FF908A
:4012000000CDE0FEEED39F40159000CDE0FF9000F9E0FEC3EF9EFF9000CDEFF080059000CDE4F09000CEE0FF9000F9E0FEC3EF9EFF9000CEEFF09000F9E0FF9000CFE0FE95
:40124000EED39F40159000CFE0FF9000F9E0FEC3EF9EFF9000CFEFF080059000CFE4F09000CDE0FFAB07E4FAF9F89000CFE0FFE4FCFDFEC3EF9BFFEE9AFEED99FDEC98FC24
:401280009000FD1207DB9000CEE0FFAB07E4FAF9F89000CDE0FFE4FCFDFEEF2BFBEE3AFAED39F9EC38F89000CFE0FFE4FCFDFEEB2FFFEA3EFEE93DFDE83CFC900101120720
:4012C000DB9000FDE0FCA3E0FDA3E0FEA3E0FF78081207B0900101E0F8A3E0F9A3E0FAA3E0FB12308FC004C005C006C0079000F4E0FF7E00EF7F00FEAB07AA06E4F9F8D0C2
:4013000007D006D005D004EF2BFFEE3AFEED39FDEC38FC9001011207DB900101E0F8A3E0F9A3E0FAA3E0FB9000F7E0FEA3E0FFE4FCFD1206619001011207DB900101E0FC0D
:40134000A3E0FDA3E0FEA3E0FFEF2400FFEE347FFEED3400FDEC3400FC781012079D9000FCEFF09000FCE0FF22900180EFF0900180E0FFEF131313541FFF900182EFF090CD
:401380000180E0FFEF5407FF7401A807088002C333D8FCFF900183EFF0900180E0FFEF903E4893FF900184EFF0900184E0FF74B92FF582E43400F583E0FF900185EFF090E4
:4013C0000184E0FF74C32FF582E43400F583E0FF900186EFF0900184E0FF74BC2FF582E43400F583E0FF900187EFF0900184E0FFEFC39401501A9001817402F0900181E008
:40140000FF74B62FF582E43400F5837401F0800D900184E0FFEF14FF900181EFF0900182E0FF74BF2FF582E43400F583E0FF900183E0FEEF5EFFEF6065900186E0FF9001C1
:4014400085E0FEC3EE9FFF900180E0FE74D02EF582E43400F583E0FEEEC39F4003021515900182E0FF74BF2FF582E43400F583C083C082E0FF900183E0FEEEF4FEEF5EFFD8
:40148000D082D083EFF0900187E0FF900181E0FE74B62EF582E43400F583EFF08077900186E0FF900185E0FEEE2FFF900180E0FE74D02EF582E43400F583E0FEEED39F40A0
:4014C0003E900181E0FF74B62FF582E43400F583E0FF14F0EFD39401503B900182E0FF74BF2FF582E43400F583C083C082E0FF900183E0FEEF4EFFD082D083EFF080169001
:401500000187E0FF900181E0FE74B62EF582E43400F583EFF0900182E0FF74BF2FF582E43400F583E0FF900183E0FEEF5EFFEF60047F0180027F0022C0E0C0F0C083C082D3
:40154000C085C084C086758600C093759300C0D075D000C000C001C002C003C004C005C006C0071232879000001207DB9000001207CF9001161207C312001D90000412072F
:40158000DB9000041207C3122F4F9000081207DB9000081207C3122FDC90000C1207DB9000041207C3C004C005C006C00790000C1207C39000331207DBD007D006D005D09C
:4015C000041231129000081207C3121DE5900010EFF0900110E0FEA3E0FFEF64014E707A7B017A007911C003C002C0017BFF7A3679D79000321207FE9000081207C39000E1
:40160000351207DBD001D002D0031209C57B017A007920C003C002C0017BFF7A3679E19000321207FE9000041207C39000351207DBD001D002D0031209C57D007F00122D3F
:401640000D7B017A007911122BFB7D007F01122D0D7B017A007920122BFB900010E0FF7E001235709000001207C39001161207DB90010C1207C37B007A007980783F1200AA
:401680002190010C1207DB7F007E007DC87C4190010C1207CF1202B8701C7F007E007D007C009001081207DB7F007E007D007C0090010C1207DBD007D006D005D004D00369
:4016C000D002D001D000D0D0D093D086D084D085D082D083D0F0D0E0327B007A4679E812378AEF4405FD7B007A4679E8123796750F00E50FC394095042AF0FEF75F005A4EA
:4017000024C5F582E43437F583AF82AE838E0D8F0EAE0DAF0E8F828E83E493FB740193FA740293F9AE0DAF0E8F828E83740393FC740493FD12358A050F80B77E377FF212DC
:4017400032B57B007A5879727D007C0312373D7B007A5879487D037C0012373D7B017A50790312378AEF4402FD7B017A5079031237967B017A50791312378AEF4402FD7B7E
:40178000017A5079131237969043A0E0FFEF4440FF9043A0EFF09043C2E0FFEF4410FF9043C2EFF07C3D7DDC7B007A5179227F087E001233B67C3D7DE47B007A5179407F28
:4017C0000A7E001233B67C3D7DEE7B007A5179527F087E001233B67C3D7DF67B007A5179627F087E001233B69044F47401F09046ECE0FFEFC394055006904689743AF090E8
:40180000480074C0F012184A9048007480F0122EB97B007A4379A0C003C002C0017B007A4379B0900064EBF0A3EAF0A3E9F0D001D002D0037F0E7E001231F59043B0E0FF38
:40184000EF54FDFF9043B0EFF0227E017F9690019AEEF0A3EFF07B007A4079807F017E007D187C001236FD7B007A4079847F1D7E007D197C001236FD7B007A4079887F1D8F
:401880007E007D197C001236FD9043007402F09040007408F09042007403F07B0C7A01790812378A9046A1EFF07B007A4279227D087C0012373D7B007A4279207D517C1076
:4018C00012373D90019CE4F07F197E007D007C009001961207DB90019AE0FEA3E0FF8F828E83E0FCA3E0FDA3E0FEA3E0FFEC4D4E4F605F90019CE0FFEF6403605590422588
:40190000E0FFEF5401FF7E0090019CE0FEEE25E0FEEE4FFFEF5403FF90019CEFF07FE07E017D007C00123000900196E0FCA3E0FDA3E0FEA3E0FF7BFF7AFF79FF78FFEF2BE3
:40194000FFEE3AFEED39FDEC38FC9001961207DB80847B007A4079047D007C0112373D9040047407F0904006E4F09040087448F0904004E4F09040017402F09043A2E0FF0E
:40198000EF4407FFEFF022900291E4F0905120E0FFEF5480FFEFF0905122E0FFEF54F0FF900291EFF0900291E0FFEF440FFF905122EFF0905123E0FFEF54F0FF900291EF13
:4019C000F0900291E0FF905123EFF0905124E0FFEF54F0FF900291EFF0900291E0FF905124EFF0905120E0FFEF54DFFFEFF0905120E0FFEF4440FFEFF07F007E00123310B1
:401A0000905120E0FFEF4410FFEFF07F017E00123310905121E0FF900291EFF0905120E0FFEF54EFFFEFF0900291E0FFEF5408FF900291EFF0905120E0FFEF4410FFEFF030
:401A40007F017E00123310905120E0FFEF54EFFFEFF0900291E0FFEF709F905120E0FFEF54BFFFEFF0905120E0FFEF5480FFEFF0905122E0FFEF54F0FF900291EFF090023A
:401A800091E0FF905122EFF0905123E0FFEF54F0FF900291EFF0900291E0FFEF440FFF905123EFF0905124E0FFEF54F0FF900291EFF0900291E0FFEF440FFF905124EFF058
:401AC0002290019DE4F090019EE4F090019FE4F0A374FFF09001A1E4F0A374FFF0D2AF9044F4E0FFEF54FDFFEFF01235A31236447D007F00122D0D7BFF7A347901122BFBCB
:401B000012362F12346812314F1235BBEF70FA122A0912314F7F01122B9D90019DEFF07F02122B9D90019EEFF07F001222D67E0090019FEEF0A3EFF07D007F01122D0D907C
:401B4000019DE0FFEFB4010B7BFF7A347912122BFB80097BFF7A347916122BFB7D057F01122D0D90019EE0FFEFB4010B7BFF7A347912122BFB80097BFF7A347916122BFB68
:401B80007D0A7F01122D0D90019FE0FEA3E0FFEF64FF4E700C7BFF7A34791A122BFB021B099001A1E0FEA3E0FF90019FE0FCA3E0FDED6F7002EC6E7003021B097D0A7F0127
:401BC000122D0D7BFF7A34791F122BFB7D0A7F01122D0D90019FE0FEA3E0FF121BF77F2512374C90019FE0FEA3E0FF9001A1EEF0A3EFF0021B092290011AEEF0A3EFF0905C
:401C00000126E4F0900127E4F090011AE0FEA3E0FFC3EF940AEE9400404590011AE0FEA3E0FF7C007D0A12060CAF05EF2430FF900126E0FE74212EF582E43401F583EFF054
:401C400090011AE0FEA3E0FF7C007D0A12060C90011AEEF0A3EFF0900126E004F080AA90011AE0FEA3E0FF7C007D0A12060CAF05EF2430FF900126E0FE74212EF582E43463
:401C800001F583EFF0900126E0FF900127EFF0900126E0FFEF64FF603E900126E0FF74212FF582E43401F583E0FF900126E0FEEEFD7C00900127E0FEEEFB7A00C3EB9DFD9B
:401CC000EA9CFC741C2DF58274013CF583EFF0900126E014F080B8900127E0FF741D2FF582E43401F583E4F07B017A01791C122BFB2242011000004401164727C59A44017A
:401D000012404000004401080000000044010C000000004101A5004101A6004201A700FF4201A300FF4100EC004100EA004100D8004E00D90000000000000000000000003E
:401D400000004100EB7F4700ED373723232323234300E70000004100D7024E00A800000000000000000000000000004700C6000000000000004700D00000000000000041C8
:401D800000BF004300B9303C3C4300C0181E1E4300C30005054300BC0101014300B600000041025400410253004102950041029C004102A10041026600410265FF4102A95A
:401DC0000044012D016E360044012800005DC041012C184401322EE000004301E50000004102C1000090002F1207DB7F007E007D7F7C439000371207DB7F007E007D207CCE
:401E00004290003B1207DB7F007E007DD87C4290003F1207DB7F007E007D507C429000431207DB7F007E007D007C009000471207DB90002F1207C3122FDC90004B1207DB37
:401E400090004B1207C390003F1207CF12011290003B1207CF120021C004C005C006C0079001081207C39000431207CF120112A804A905AA06AB07D007D006D005D004125A
:401E800000219000331207DB7F007E007D007C009000331207CF1202B850107F007E007D007C009000331207DB801F9000371207C39000331207CF1202B8600E400C9000CD
:401EC000371207C39000331207DB9000331207C312036F2275930078007583467582E8E04401F0009046ECE0F99046FAE0FAB903225420B40012B8001AEA901FFFF07401F5
:401F0000901FFEF09046F6F0901FFEE06005901FFFE0FA90480074C0F075812190000078007920E4F0A3D8FCD9FAEA900131F002001175101F7511FD1216D9021F79021A6F
:401F4000C1E493A3F8E493A34003F68001F208DFF48029E493A3F85407240CC8C333C4540F4420C8834004F456800146F6DFE4800B0102040810204080901CF2E47E0193E7
:401F800060BCA3FF543F30E509541FFEE493A360010ECF54C025E060A840B8E493A3FAE493A3F8E493A3C8C582C8CAC583CAF0A3C8C582C8CAC583CADFE9DEE780BE90013B
:401FC0005CEFF090015DEDF090015EEBF090016074FFF0900161E4F090015CE0FF74D02FF9E43400FA7B01900162EBF0A3EAF0A3E9F090015FE4F090015DE0FF90015FE009
:40200000FEEEC39F507A900162E0FBA3E0FAA3E0F990015FE0FFE92FF9E43AFA1205A2FF90015EE0FEEFD39E404D900162E0FBA3E0FAA3E0F990015FE0FFE92FF9E43AFA98
:402040001205A2FF900161E0FEEFD39E402990015FE0FF900160EFF0900162E0FBA3E0FAA3E0F990015FE0FFE92FF9E43AFA1205A2FF900161EFF090015FE004F0021FF74C
:40208000900160E0FF221234477F02123390123698900285EFF0906492E0FFEF4403FFEFF0900285E0FF1235D390642274B8F090644274FFF09064857403F01236989002CF
:4020C00085EFF0906491E0FFEF4403FFEFF0906490E0FFEF4403FFEFF0900285E0FF1235D390642174FFF090644174FFF090640174FFF090642074FFF090645074FFF09067
:40210000644074FFF07F001224E77C257D907F001226357D077F0012276A1237C07F07122CB47F08122CB47F09122CB4906474E0FFEF4404FFEFF0122AD6122E677F0012A2
:4021400032297F041232587F001235202290FFFF12082DEFF090FFFE12082D851083851182A3A3E0FFEF903E2A93FF851083851182EFF0851083851182A3A3E0FFEF903E66
:402180003193FF851083851182A3EFF0851083851182A3A3E0FF122C58851083851182E0FFEFB40F098510838511827407F0851083851182E0FFEF25E02438F582E4343E2E
:4021C000F583E493FE740193FF8F828E83C083C082E0FF851083851182A3E0FEEEF4FEEF5EFFD082D083EFF0851083851182A3A3E0FFEF25E0241CF582E4343EF583E493BF
:40220000FE740193FF8F828E837408F090000312082D2290FFFF12082DEFF090FFFE12082D851083851182A3A3E0FFEF903E2A93FF851083851182EFF0851083851182A3D7
:40224000A3E0FFEF903E3193FF851083851182A3EFF0851083851182A3A3E0FFEF25E0241CF582E4343EF583E493FE740193FF8F828E837409F0851083851182E0FFEFB41F
:402280000F098510838511827407F0851083851182E0FFEF25E02438F582E4343EF583E493FE740193FF8F828E83C083C082E0FF851083851182A3E0FEEF4EFFD082D08333
:4022C000EFF0851083851182A3A3E0FF122CB490000312082D229001A9EFF09001A9E0FFEF903E4F93FF9001ADEFF09001A9E0FFEF903E5293FF9001AEEFF09001ADE0FFDA
:402300009001AEE0FD9001A9E0FE74B92EF582E43400F583E0FB121FBE9001AAEFF09001AAE0FFEF64FF60549001A9E0FFEF25E02455F582E4343EF583E493FE740193FFBC
:402340009000F7EEF0A3EFF09001AAE0FF9001ADE0FD9001AEE0FB9001A9E0FE74C02EF582E43400F583E0FE9000F9EEF01210E77E009001ABEEF0A3EFF0800A9001AB7404
:40238000FFF0A374FFF09001ABE0FEA3E0FF2290028AEFF0906474E0FFEF54FCFFEFF0906410E0FF7E00EF7F00FE90028AE0FDED25E024D9F582E43400F583EEF0A3EFF0EF
:4023C00090028AE0FFEF25E024D9F582E43400F583C083C082E0FEA3E0FF906400E0FD7C00EE4CFEEF4DFFD082D083EEF0A3EFF090028AE0FFEF25E024D9F582E43400F5D0
:4024000083E0FEA3E0FFC374FF9FFF74FF9EFE90028AE0FDED25E024D9F582E43400F583EEF0A3EFF090028AE0FF12214D7F00123520905870E0FFEF4401FFEFF02290FF2C
:40244000FF12082DEFF090FFFE12082D851083851182A3A3E0FFEFD3941F5003D38001C34025851083851182A3A3E0FFEFD3941F500A7F017E007D007C0080087F007E002A
:402480007D007C001233DC851083851182A3A3E0FFEF541FFF7E00EF7803CEC313CE13D8F9FFEF24C0FFEE3444FE851083851182EEF0A3EFF0851083851182A3A3E0FFEF05
:4024C0005407FF7401A807088002C333D8FCFF851083851182E0FCA3E0FD8D828C83EFF090000312082D2290FFFF12082DEFF090FFFE12082D851083851182A3A3E0FFEFBA
:40250000D3941F5003D38001C34025851083851182A3A3E0FFEFD3941F500A7F017E007D007C0080087F007E007D007C001233DC851083851182A3A3E0FFEF541FFF7E0058
:40254000EF7803CEC313CE13D8F9FFEF24C8FFEE3444FE851083851182EEF0A3EFF0851083851182A3A3E0FFEF5407FF7401A807088002C333D8FCFF851083851182E0FCAD
:40258000A3E0FD8D828C83EFF090000312082D22C0E0C0F0C083C082C085C084C086758600C093759300C0D075D000C000C001C002C003C004C005C006C0079000D8E0FF70
:4025C00012238F9000EAE0FFEF5480FF7E00EF4E60109000EAE0FFEF54FEFF9000EAEFF080309000D8E0FF1226D29000D8EFF09000D8E0FFEFC39407500A9000D8E0FF1250
:402600002F96800E9000EAE0FFEF54FEFF9000EAEFF0D007D006D005D004D003D002D001D000D0D0D093D086D084D085D082D083D0F0D0E0329001E0EFF09001E1ECF0A32F
:40264000EDF09001E0E0FFEFD3941F5003D38001C340209001E0E0FFEFD3941F500A7F017E007D007C0080087F007E007D007C001233DC9001E0E0FFEF541FFF7E00EF25F6
:40268000E0FFEE33FEEF2400FFEE3444FEAA06A9077B011237309001E3EEF0A3EFF09001E0E0FF7E02EF8EF0A4FFAEF0EF2400FFEE3444FEAA06A9077B019001E1E0FEA3BA
:4026C000E0FFAD07AC0612373F9001E3E0FEA3E0FF2290FFFF12082DEFF090FFFE12082D851083851182A3A3E004F0851083851182A3A3E0FFEF6407605F851083851182A7
:40270000A3A3E0FFEF131313541FFF851083851182EFF0851083851182A3A3E0FFEF5407FF7401A807088002C333D8FCFF851083851182A3EFF0851083851182E0FF74EB96
:402740002FF582E43400F583E0FF851083851182A3E0FEEF5EFFEF6087851083851182A3A3E0FF90000312082D2290027BEFF090027CEDF090027CE0FFEFD394075003D3D9
:402780008001C3402090027CE0FFEFD39407500A7F017E007D007C0080087F007E007D007C001233DC90027BE0FFEFD3941F5003D38001C3402090027BE0FFEFD3941F505F
:4027C0000A7F017E007D007C0080087F007E007D007C001233DC90027CE0FFEF5407FF7E00EF75F020A4FFAEF090027BE0FEEE541FFE74802EF582E43444F583EFF0229088
:40280000FFFC12082D1207DB7F007E807D007C00851083851182E0F8A3E0F9A3E0FAA3E0FBD312078C4040900132E0FCA3E0FDA3E0FEA3E0FF123000851083851182C0839E
:40284000C082E0FCA3E0FDA3E0FEA3E0FFC3EF9400FFEE9480FEED9400FDEC9400FCD082D0831207DB80A1900128E0FCA3E0FDA3E0FEA3E0FF851083851182E0F8A3E0F922
:40288000A3E0FAA3E0FB12066112300090000412082D22900247EFF0900247E0FFEF903E4893FF900248EFF0900247E0FFEF25E024D9F582E43400F583E0FEA3E0FF900203
:4028C00047E0FDED25E024A8F582E43400F583EEF0A3EFF0900247E0FF74C62FF582E43400F583E4F0900247E0FF74D02FF582E43400F583E4F0900248E0FFEFD39400403E
:4029000022900248E0FF74BC2FF582E43400F583E0FF900248E0FE74B52EF582E43400F583EFF0227F287E007D007C001227FF7F03122F067F057E007D007C001227FF7F8F
:4029400003122F067F0F7E007D007C001227FF7F03122F067F017E007D007C001227FF7F02122F067F057E007D007C001227FF7F0612304B7F0E12304B7F2C12304B7F08F2
:4029800012304B7F0112304B7F0C12304B7F0312304B7F057E007D007C001227FF22906577E0FFEF54C0FF900255EFF0900255E0FFEF4409FF906577EFF0906596E0FFEF49
:4029C0004401FFEFF0906597E0FFEF4401FFEFF07FFF7E0012353C7FFF7E001235567F007E00123570906587E4F0123698900256EFF0906597E0FFEF4410FFEFF090025600
:402A0000E0FF1235D312366E2290022FE4F090022FE0FFEFC39407505790022FE0FFEF131313541FFF900230EFF090022FE0FFEF5407FF7401A807088002C333D8FCFF90D1
:402A40000231EFF0900230E0FF74EB2FF582E43400F583E0FF900231E0FEEF5EFFEF600890022FE0FF120DE390022FE004F0809E2290FFFF12082DEFF090FFFF12082D8566
:402A80001083851182A3E0FFEF903E4893FF851083851182EFF0851083851182A3E0FF74ED2FF582E43400F583E0FF123520851083851182E0FF74E72FF582E43400F58314
:402AC000E0FF906451EFF09000D7E0FF1232E390000212082D227F00122B3B905840E0FFEF4420FFEFF0800B905840E0FFEF54DFFFEFF0905840E0FFEF54FBFFEFF0800BFC
:402B0000905840E0FFEF4404FFEFF0905840E0FFEF4408FFEFF0905AC7E0FFEF54E7FFEFF0800C905AC7E0FFEF4408FFEFF022905AC7E0FFEF4410FFEFF0229002A0EFF086
:402B40009002A0E0FFEF5403FF905840E0FEEE54FCFEEE4FFF905840EFF09002A0E0FFEFB4011D7B0C7A01791012378A904630EFF07B0C7A01791412378A904631EFF022FB
:402B80007B0C7A0179AD12378A904630EFF07B0C7A0179B512378A904631EFF0229001F4EFF09001F4E0FFEF903E4F93FF9001F5EFF09001F4E0FFEF903E5293FF9001F5D4
:402BC000E0FEEF2EFF9001F6EFF09001F7E4F09001F5E0FF121369EF60069001F77401F09001F5E004F09001F6E0FF9001F5E0FEEEC39F40DA9001F7E0FF229001D1EBF090
:402C0000A3EAF0A3E9F09001D47401F09001D1E0FBA3E0FAA3E0F91205A2FF9001D5EFF09001D5E0FFEF602F9001D5E0FF1231899001D1E0FBA3E0FAA3E0F99001D4E0FF50
:402C4000E92FF9E43AFA1205A2FF9001D5EFF09001D4E004F080C92290FFFF12082DEFF0851083851182E0FFEFC3940A503F851083851182E0FFEF25E024FEF582E4343DF7
:402C8000F583E493FE740193FF8F828E83C083C082E0FF851083851182E0FEEE903E1293FEEEF4FEEF5EFFD082D083EFF090000112082D2290FFFF12082DEFF08510838532
:402CC0001182E0FFEFC3940A503C851083851182E0FFEF25E024FEF582E4343DF583E493FE740193FF8F828E83C083C082E0FF851083851182E0FEEE903E1293FEEF4EFF72
:402D0000D082D083EFF090000112082D2290024BEFF090024CEDF090024BE0FFEF1208072D30002D3D012D4A022D570300002D6390024CE0FFEF2480FF12304B2290024C9E
:402D4000E0FFEF24C0FF12304B2290024CE0FFEF2494FF12304B2290024CE0FFEF24D4FF12304B22900292EFF0121987905120E0FFEF4420FFEFF0905120E0FFEF54BFFFE8
:402D8000EFF0905120E0FFEF54F0FFEFF0905120C083C082E0FF900292E0FEEE4410FEEF4EFFD082D083EFF07F017E00123310905120E0FFEF54EFFFEFF022123698900205
:402DC00086EFF0906495E0FFEF4420FFEFF012377E1235EB1236029043BBE0FFEF4410FFEFF09043ABE0FFEF4410FFEFF0905870E0FFEF4401FFEFF0900286E0FF1235D32C
:402E00007F0012243E906474E0FFEF4480FFEFF022905824E0FFEF540CFF7E00EEC313FEEF13FF9002A8EFF0905825E0FFEF5404FF7E00EF64044E70069002A8E004F090A9
:402E400002A8E0FFE4FCFDFEEF2430FFEE3401FEED340CFDEC3400FCA907AA06AB0512378A904609EFF0229058247414F080089058257420F08014905825E4F0800D9058FB
:402E800025E0FFEF4408FFEFF0800B905825E0FFEF4404FFEFF0905825E0FFEF4402FFEFF0800B905A8FE0FFEF4408FFEFF07F007E0012333D122E11227B0C7A0179CF1220
:402EC000378A9002B6EFF09002B6E0FFEF5407FF90586EEFF09002B6E0FFEFC4540FFFEF540FFF90586FEFF090516D7410F0905870E4F0905AC37420F0905B5B7401F09028
:402F000058767466F022900293EFF0905120E0FFEF549FFFEFF0905120E0FFEF54F0FFEFF0905120C083C082E0FF900293E0FEEE4410FEEF4EFFD082D083EFF07F017E00DC
:402F4000123310905120E0FFEF54EFFFEFF02290002F1207DB7F257E8D7D277C3F9000331207DB7B007A0079A078409000331207C312021B9000371207DB90002F1207CF7C
:402F80009000371207C312021B90003B1207DB90003B1207C32290FFFF12082DEFF0851083851182E0FF122A71906474E0FFEF4401FFEFF0905870E0FFEF54FEFFEFF08513
:402FC0001083851182E0FF122213906474E0FFEF4402FFEFF090000112082D2290004F1207DB7F007E007D407C409000531207DB90004F1207CF9000531207C312001D22B5
:40300000EC4D4E700D78FCEF24E950032840FD22000078C5904800E0C4030354039030479325E0240FF404FBEF28FF78FFEE38FEED38FDEC38FC50D7EF2BFFEE38FEED38EB
:40304000FDEC38FC40F2220502030490024FEFF090024FE0FFEFC4540FFF900250EFF0121987900250E0FFEF540FFF900250EFF0900250E0FF122F0690024FE0FFEF540FDC
:40308000FF900250EFF0900250E0FF122F0622C2D5E830E70FB2D5E4C39BFBE49AFAE499F9E498F8EC30E717B2D51230C51206ECE4C39BFBE49AFAE499F9E498F88003127B
:4030C00006EC30D50DE4C39FFFE49EFEE49DFDE49CFC227F7F7EE37DFF7CFF1234C87F7F7EE37DFF7CFF1234E6123698900298EFF0906497E0FFEF4410FFEFF0900298E087
:40310000FF1235D37F001231BF12371F7F0212370F2290002F1207DB9001081207C3C004C005C006C00790002F1207C39000331207CF120112A804A905AA06AB07D007D086
:4031400006D005D0041200219001081207DB229000EAE4F09000D874FFF09000D8E0FF1226D29000D8EFF09000D8E0FFEFC3940750169000EAE0FFEF4401FF9000EAEFF02E
:403180009000D8E0FF122F962290024DEFF012198790024DE0FFEFC4540FFF90024EEFF090024EE0FF122D6490024DE0FFEF540FFF90024EEFF090024EE0FF122D64229089
:4031C000029BEFF090029BE0FFEF5403FF90029BEFF0906472E0FFEF54FCFFEFF0906472C083C082E0FF90029BE0FEEF4EFFD082D083EFF022758600EF4E6027EF60010EC0
:40320000759300900064E0F595A3E0F585A3E0F5848B938A838982E0A30586F0A31586DFF6DEF4E4F593F595229002A6EFF0905825E0FFEF54FBFFEFF0905825C083C0824D
:40324000E0FF9002A6E0FEEE5404FEEF4EFFD082D083EFF0122E11229002A7EFF0905824E0FFEF54F3FFEFF0905824C083C082E0FF9002A7E0FEEE540CFEEF4EFFD082D09A
:4032800083EFF0122E11227F007E507DC37C4790002F1207DB1237A2E412033190002F1207CF12021B9000331207DB1237BA9000331207C322ACEAADA08E838F82E493F95B
:4032C000601CA3E493F5EAA3E493F5A0A3E49360F1FAA3E493F8A3E493F2DAF6D9E48DA08CEA2290FFFF12082DEFF0851083851182E0FF906423EFF0851083851182E0FF0D
:40330000EFC313FF906433EFF090000112082D22EEFA90012CE0F88FF0A4FFAEF0E88AF0A42EFEE5F03400FDEF24C9FF78FFEE38FEED38FDE438FC5003023000229002A5C6
:40334000EFF0905824E0FFEF54FDFFEFF0905824C083C082E0FF9002A5E0FEEE5402FEEF4EFFD082D083EFF022EFB40A07740D123374740A309811A899B8130CC29830983D
:40338000FDA899C298B811F63099FDC299F5992290028DEFF090028DE0FFEFB4010C906474E0FFEF54EFFFEFF022906474E0FFEF4410FFEFF022758600EF4E601BEF600133
:4033C0000E8C838D828B958A858984E493A30586F0A31586DFF5DEF3E4F5952290FFFF12082DEFF0851083851182E0FF851083851182EFF09046EA7401F090000112082D8E
:403400002242746E302042746E3120536C69646572004F6E20004F6666002D2D2D2D002020202000900287EFF09000EAE4F0900287E0FF9000D8EFF09000EA7481F090027C
:4034400087E0FF122F9622900289E4F0900289E0FFEFC394075010900289E0FF12214D900289E004F080E52290028FE4F090028FE0FFEFC39407501090028FE0FF1235047A
:4034800090028FE004F080E5229002A4E4F09002A4E0FFEFC3940A50109002A4E0FF122C589002A4E004F080E52290025FEEF0A3EFF07B027A44790290025FE0FEA3E0FF2D
:4034C000AD07AC0612373F229001F81207DB7B027A6479249001F8E0FCA3E0FDA3E0FEA3E0FF1236C4229001FC1207DB7B027A6479049001FCE0FCA3E0FDA3E0FEA3E0FFEC
:403500001236C42290028EEFF090028EE0FF1234241235BBEF70FA90028EE0FF1228932290FFFF12082DEFF0851083851182E0FF905B81EFF090000112082D22900257EECD
:40354000F0A3EFF07B027A657906900257E0FCA3E0FD12373F22900259EEF0A3EFF07B027A657946900259E0FCA3E0FD12373F2290025BEEF0A3EFF07B027A6579269002DE
:403580005BE0FCA3E0FD12373F22EC4D6011ED60010C8B938A838982E4F0A3DDFCDCFA759300221236EA7E157F381234AA1236831236597F327E00123570229000EAE0FFE7
:4035C000EF5401FF7E00EF64014E70047F0180027F0022EF54016004D2AF8002C2AFEF5402FF9044F4E054FD4FF0229043A7E0FFEF4401FFEFF09043B7E0FFEF4401FFEFA1
:40360000F0229043A8E0FFEF4402FFEFF09043B8E0FFEF4402FFEFF022900296EFF0900296E0FFEFC43354E0FF904481EFF0229000ECE0FFEF70091220869000EC7401F093
:40364000122DBB22900253E0FFEF70091229249002537401F012375A22900295E0FFEF700912299E9002957401F012376622906567E0FFEF30E40B7B027A65795612373003
:4036800080EC2290029CE0FFEF70091230D390029C7401F0123772229044F4E0F84402F0E85402FF10AF012274014FFF228B938A838982E0FFA3E0FEA3E0FDA3E0FC75930B
:4036C00000228B938A838982EFF0A3EEF0A3EDF0A3ECF0759300225350443A20252E32660064543A20252E3266001237B37E377FC41234AA7F071236191237AC228B938A36
:40370000838982EFF0A3EEF0A3EDF075930022900299EFF0900299E0FF906487EFF0221237BA7E00EF30E3051237A280F2228B938A838982E0FFA3E0FE759300228B938AF2
:40374000838982EDF0A3ECF075930022900290EFF0900290E0FF123189227F0C12304B9002547401F022906577E0FFEF4480FFEFF022906472E0FFEF4480FFEFF0229043F7
:40378000A2E0FFEF4401FFEFF0228B938A838982E0759300FF228B938A838982EDF0759300227B027A6479441236AF229044C07402F0229044C87402F022906467E0FF220B
:4037C0001234892232005100002000513000100051C000100051F00010010000100001140008000140000A00014C00020001500000201B005203214024042E7F00640900E6
:40380000FF01FF03FF10FF11FF20FF21FF851F870F006501872D010051041008180C600E0410631408150116101A631B011C101E0821012260242128422B012E03306032A9
:4038400018330134073E113F0440424105460247604824580459045A045F01610C62F0630C650C670C6840694C6A406B4C6C906D586F0C83018401861A940396709C019E08
:403880004AA02BA804AA78B101B207B678BA8CC062C103C502C706C811D804D904DA04DC22DF01E10CE2F0E30CE50CE70CE840E94CEA40EB4CEC90ED58EF0C01012A00083E
:4038C00001200302040808920A100D800E2010281281172118241A501D801E202310274029123028341035103F0140044240452047084A014C204F185281540857088E04F5
:40390000C027C2AFC45FCA05CC06CE80D065D228E610010249030405011B031D04210329022F04330435033F1440054104460A49FF4AFF4BFF4C024EF0528359045A045BF0
:40394000045D205F01624863A168F06AF06CF06EF086018A018C0190019401970498019B049C029F02A308A402A701A801A904AD01AF02B001B303B402B50CB820BF14C07E
:4039800064C554C702C813C9FFCAFFCBFFCC02CD20CF05D110D804D904DA04DF01E040E140E280E480E68001033E01240302081009020B121020120419021B122120220496
:4039C0002604272829422B142D022E802F08301031103388351037403F0940804101448048284B024E02500857806C046F05768090209301940897409B409C829D329E0453
:403A00009F29A180A210A30CA404A520A601A702AB01B340C007C20FC406CABFCC3ECEC0D081D214EA2001044D0101020404020609080409010A080C0C0F01100C140D160A
:403A40000218081A041C032201260829012A022E043101320C34034043420649FF4AFF4BFF4F0150185217580459045A045B045D025F016040624064406540668068806AA8
:403A8000806C806E808B019601A101B101B601C043C202C9FFCAFFCBFFCD83CE03CF01D018D602D804D904DA04DB04DD02DE08DF01E040E240E440E540E680E880EA80ECE1
:403AC00080EE80010540000402040342081009020A020B100F20100811441302180419281F8021012201260229202F80382039823B103F20410442A046A047204A046508FB
:403B00006604680C69846B02714076407E018348902095069750981099029A809B259C029D709E04A180A214A31EA404A502A603AC02AE04C00FC22FC40FCA84CE2DD0E381
:403B4000D204DE10EC020106530103050111031B03290231033F014046420249FF4AFF4BFF4D834E034F015018560859045A045B0F5D025F016040624064406540668068C5
:403B8000806A806C806E8080018401890F8D01910E920193019504980199099B069E02A201A401A50FA902AA02AD07AF08B002B10FB401BE01C043C206C5ECC702C813C92D
:403BC000FFCAFFCBFFCD83CE03CF01D018D403D604D804D904DA04DB04DD22DF01E040E240E440E540E680E880EA80EC80EE80010741010A088009020A04125819101A44D1
:403C000021022601280129082B042F08311233083401351238203A503B803F094080410442804680472049054A044E085104520859055A505F806340640267017F408B80E4
:403C4000902095089740990A9AC09B259C029D10A180A214A30CA502A601A940AB04C00CC20BC40ECA2ECCA7CECCD0A3D224D61FD811DE80010901E620010B01EC02011674
:403C80004B00100C050E0A1405160A1C031E0C2403260C2A0F320F341039023E104030410649FF4AFF4BFF4DA04F045018580459045A045C125D015F01604062C064406516
:403CC0004066C068C06AC06CC06EC0880293039B01A603B101B201B302B602C030C106C5D1C702C813C9FFCAFFCBFFCDAFCE0FCF04D018D280D425D804D904DA04DB04DC7E
:403D000011DD11DF01E040E2C0E440E540E6C0E8C0EAC0ECC0EEC0011727001007410D800E2010201724181019401C041E10210927403020310241084508482049014A080D
:403D40004E0C520859415A0860047102890196109B25A180A210C092C2A0C464CC05D042D224D60BD804E22001400803043020348062208C20C040CC30D840014104A620E3
:403D8000AB04B080E880014204A380A620AF80EE10014302A380A6200144022A10CA080145033B409A10CE080146029A10AF400147038A109A10E6040148038A20A380A67F
:403DC000200149037B80A380DE40015005000508050A0510061A06015101000F007F7F00000000004000044040004000000000007F00000000000000000000001000515CCD
:403E0000515C515C515C515C515C515C516C5AC35A8B40200102040810100110502E502D50285029502A502B502C05050505050505402001020408105206520E5216521E86
:403E40005226522E5236527E0102000000000002000105010119000000000000000000000000000000000000000000000000000000000000000000000000000000000000CC
:403E80000000000000000000000000000000000000000000000000000000000000000000000000000000000000000000000000000000000000000000000000000000000002
:403EC00000000000000000000000000000000000000000000000000000000000000000000000000000000000000000000000000000000000000000000000000000000000C2
:403F00000000000000000000000000000000000000000000000000000000000000000000000000000000000000000000000000000000000000000000000000000000000081
:403F40000000000000000000000000000000000000000000000000000000000000000000000000000000000000000000000000000000000000000000000000000000000041
:0200000480007A
:0200000490006A
:0400000000000005F7
:0200000490105A
:04000000AFAC90BC55
:0200000490303A
:02000000C4CF6B
:0200000490501A
:0C00000000011E02806903011E2145382A
:0200000490402A
:4000000000000000000000000000000000000000000000000000000000000000000000000000000000000000000000000000000000000000000000000000000000000000C0
:00000001FF
