:40000000021E6A008F828E83E0540100000070F82278FFE4F6D8FD021EC80203DBE86480F8E933E83360110460F0ED33EC337009E8FCE9FDEAFEEBFF220460DED3EB9FEAA8
:400040009EE99DE8C2E78CF0C2F795F0400CE8CCF8E9CDF9EACEFAEBCFFB1203A685D0F05804700320D5B3E80470075002B2D50203E592D5EC0460F7E4CCC0E0C398F860B5
:400080003B94186008400DD0E0FB0203BDE4FBFAC9FC8028E830E406E4C9FBE4CAFCE830E305E4C9CACBFCE854076010F8C3E913F9EA13FAEB13FBEC13FCD8F130F52FC331
:4000C000E49CFCEF9BFFEE9AFEED99FDD0E0FBEF4E4D4C701222DB030203E2EC2CFCEF33FFEE33FEED33FDED30E7EB0203BDEF2BFFEE3AFEED39FDD0E0FB50130BBB0003AD
:400100000203E5ED13FDEE13FEEF13FFEC13FC0203BDEC4D6011E8497017ED33EC3304600DE4FCFFFEFD22E933E8330470F80203DB1203A658046009E4CC248150062850E7
:40014000090203E52840030203E2C0E0EB4A7044B98006D0E0FB0203D1EF4E701CBD8008EBFFEAFEE9FD80EBE98DF0A4FEE5F00201FBE9CDF9EAFEEBFFEF89F0A4FCE5F087
:40018000CE89F0A42EFFE435F0CD89F0A42DFEE435F08067EF4E7005BD80D780C3EF8BF0A4ACF0EE8BF0A42CFCE435F0F8EF8AF0A42CE5F038FCE433CB8DF0A42CFCE5F0EE
:4001C0003BF8EE8AF0A42CFCE5F038F8E433CF89F0A42CFCE5F038CF3400CE89F0A42FFFE5F03EFEE433C98DF0A42EFEE5F039CD8AF0A42FFFE5F03EFEE43DFD33D0E0FBCD
:4002000050070BBB000F0203E5EC2CFCEF33FFEE33FEED33FD0203BD0203E5EC5D046005E8590470030203DB1203A6580460F6EC4860F2EC7004FDFEFF22C860DB2481C862
:400240005009C398600250060203E29850CAF582E9294B4A7005AB820203D175F0007C1A7880C3EF9BEE9AED99400DC3EF9BFFEE9AFEED99FDE842F0DC23ACF0D0E0FFD0BF
:40028000E0FED0E0FDAB8220E7101BEB60BAEC2CFCEF33FFEE33FEED33FD0203BDE803F830E705C0F075F000EF2FFFEE33FEED33FD40B830E7C280AA74F8CC6480CCC864A0
:4002C00080C8F58204604FC3EB9FF5F0EA9E42F0E99D42F0E89C45F0603C501DE5825FFFE582D313CB5BCBF42B5582FB50280ABA002409B9002008801DE5825BFBE582D354
:4003000013CF5FCFF4C3132F5582FF50090EBE00050DBD00010CC3EB9FF5F0EA9E42F0E99D42F0E89C45F06007CC4820E701B3EC2275F020800E75F010800575F0087D0045
:400340007E007F003392D530D503120794EC334010EF33FFEE33FEED33FDEC33FCD5F0ED22E5F0247EA2D513CC92E7CDCEFF22EDD2E7CD33EC3392D524814006E4FFFEFD7F
:40038000FC22FCE4CFCECDCC24E0501174FF80EDC3CC13CCCD13CDCE13CECF13CF0470F030D5DE020794E9D2E7C933E833F892D5EDD2E7CD33EC33FC5002B2D522EC30E78E
:4003C000100FBF000C0EBE00080DBD00040BEB6014A2D5EB13FCED92E7FD2274FFFCFDFEFF22E480F8A2D574FF13FC7D80E480EFF920E73624F950037907E4F42402FBE5DD
:4004000082158270021583DBF6E024FB501BE96014E4F0E582158270021583E004F0B40A08E4F0D9EE7401F00A22C2D522ED33EC3392D5FA602AB4FF33EDC2E77BFF600620
:400440007A047952E4227A04795B20D5047A047956224E614E002B494E46002D494E4600E47A08F0A3DAFC7B00740722C083C082ECC0E0EDC0E0EEC0E0EFC0E0EA75F01063
:40048000A4CAABF075F04DA42BFBE435F0FCEA2410FAEB34C5FBEC34D9FCEDC2E7FF75F056A4F42411C5F0F434C58FF0A42AE5F03BE43CF020E714120562D0E0FFD0E0FEA9
:4004C000D0E0FDD0E0FC12021B8014F404120562D0E0FFD0E0FED0E0FDD0E0FC120112D082D083E0FAEDD2E7CD33EC332482FBE4C3CF33CFCE33CECD33CD33DBF37B0775A3
:40050000F00A846004F0A31B0AE5F0F0A38FF0740AA4FFACF08EF0740AA42CFEACF050010C8DF0740AA42CFDE435F0F0A3DBDE7407223F8000004120000042C80000447A18
:400540000000461C400047C35000497424004B1896804CBEBC205A0E1BCA6753C21C749DC5AEFB60065407601C2323120590EB5438600912057C12058B120112ECF8EDF9AD
:40058000EEFAEFCB22EB12058B80F1543803241C900532FE93FC0EEE93FD0EEE930ECE93FF22BB010689828A83E0225002E722BBFE02E32289828A83E49322BB010CE582D4
:4005C00029F582E5833AF583E0225006E92582F8E622BBFE06E92582F8E222E58229F582E5833AF583E49322BB010689828A83F0225002F722BBFE01F322EF8DF0A4A8F086
:40060000CF8CF0A428CE8DF0A42EFE22BC000BBE0029EF8DF084FFADF022E4CCF875F008EF2FFFEE33FEEC33FCEE9DEC984005FCEE9DFE0FD5F0E9E4CEFD22EDF8F5F0EE7F
:400640008420D21CFEADF075F008EF2FFFED33FD4007985006D5F0F222C398FD0FD5F0EA22C5F0F8A3E028F0C5F0F8E582158270021583E038F022E88FF0A4CC8BF0A42C17
:40068000FCE98EF0A42CFC8AF0EDA42CFCEA8EF0A4CDA8F08BF0A42DCC3825F0FDE98FF0A42CCD35F0FCEB8EF0A4FEA9F0EB8FF0A4CFC5F02ECD39FEE43CFCEAA42DCE359D
:4006C000F0FDE43CFC2275F008758200EF2FFFEE33FECD33CDCC33CCC58233C5829BED9AEC99E58298400CF582EE9BFEED9AFDEC99FC0FD5F0D6E4CEFBE4CDFAE4CCF9A88E
:400700008222B800C1B90059BA002DEC8BF084CFCECDFCE5F0CBF97818EF2FFFEE33FEED33FDEC33FCEB33FB10D703994004EB99FB0FD8E5E4F9FA227818EF2FFFEE33FEC5
:40074000ED33FDEC33FCC933C910D7059BE99A4007EC9BFCE99AF90FD8E0E4C9FAE4CCFB2275F010EF2FFFEE33FEED33FDCC33CCC833C810D7079BEC9AE899400AED9BFD36
:40078000EC9AFCE899F80FD5F0DAE4CDFBE4CCFAE4C8F922C3E49FFFE49EFEE49DFDE49CFC22EB9FF5F0EA9E42F0E99D42F0E89C45F022E8600FECC313FCED13FDEE13FEC5
:4007C000EF13FFD8F122E8600FEFC333FFEE33FEED33FDEC33FCD8F122E0FCA3E0FDA3E0FEA3E0FF22E0F8A3E0F9A3E0FAA3E0FB22ECF0A3EDF0A3EEF0A3EFF022F8E0FB4A
:40080000A3A3E0F925F0F0E582158270021583E0FA38F022EBF0A3EAF0A3E9F022D083D082F8E4937012740193700DA3A393F8740193F5828883E4737402936860EFA3A39F
:40084000A380DFE5112582F582E5103583F583B510048582112210AF06858211F51022858211F510D2AF22EC8EF0A4CCC5F0CCCDF8EFA4CEC5F02DFDE43CFCE8A42EC8C5B3
:40088000F03DFDE43CFCEFA4FFE5F028FEE43DFDE43CFC22E709F608DFFA8046E709F208DFFA803E88828C83E709F0A3DFFA8032E309F608DFFA806EE309F208DFFA80667E
:4008C00088828C83E309F0A3DFFA805A89828A83E0A3F608DFFA804E89828A83E0A3F208DFFA804280D280FA80C680D4805580F28029801080A680EA809A80A880DA80E2C9
:4009000080CA802988848C8589828A83E493A30586F0A30586DFF5DEF3800B89828A83E493A3F608DFF9ECFAA9F0EDFB2288848C8589828A83E0A30586F0A30586DFF6DEF7
:40094000F480E389828A83E493A3F208DFF980D688F0EF60010E4E60CD88F0ED2402B4040050C3F582EB2402B4040050B923234582239008E473E5082428F582E43400F5FA
:4009800083E0050822900025300703900028E475F0011207FD0205A22000E97F2ED2008018EF540F2490D43440D4FF30040BEF24BFB41A0050032461FFE50960021509058B
:4009C0000CE50C7002050B30070E900025E475F0011207FDEF0205E80239B57403D2078003E4C207F508900025120814E4F509F50BF50CE50960077F201209B980F5750A51
:400A0000FFC201C200C202C203C205C206C208120985FF700D3007057F001209CAAF0CAE0B22B4255FC2D5C204120985FF24D0B40A00501A75F00A780930D50508B6FF01F6
:400A400006C6A426F620D5047002D20380D924CFB41A00EF5004C2E5D204020CBCD20180C6D20080C0D20280BCD2D580BAD20580B47F201209B92002077401B5090040F1DF
:400A8000120976FF1209B90209F3D208D2068095120976FB120976FA120976F94A4B700679BA7A0D7BFF20022EE509602A7E008E827583001205BB60060EEE650A70F0C21A
:400AC000D5EBC0E0EAC0E0E9C0E0EE120D1DD0E0F9D0E0FAD0E0FB1205A2FF60AAEBC0E0EAC0E0E9C0E01209B9D0E02401F9D0E03400FAD0E0FBE50A0460DCD50AD98087E2
:400B0000D20280A2120CFF60F7E50A7001041203F0A90A600DE50A600914F50A120DA7EF60F3EA30E702F404C3995079EAF4250A0430E701E404F50A800D120CFF60C1EA6A
:400B4000050A250A1203F0EA900054F030E701E4250A04D50A0420050114120D1DE4C0E0120DA7900054E0601320E70714F01209A1802204F0D0E014C0E07F001209A1E583
:400B80000A6007120998150A800B300503120998D0E00209F3D0E00480C4120CFF609EE50A041203F0900054EAF0E50A2005026001042404120D1D74FF04C0E0120DA71237
:400BC00009A1E50A2005026003120998D0E0B50AE87F451209AB900054E07F2B30E7047F2DF404C0E01209B9D0E075F00A84C0F01209A2D0E01209A20209F379108002799E
:400C000008C206C2088008D2D5790A8004790AC2D5E50A047002F50AE4FAFDFEFF120976FC7B08200113120976FD7B1030000A120976FE120976FF7B20EC3382D592D55010
:400C400013C3E43000069FFFE49EFEE42001039DFDE49CFCE4CBF8C201EC700CCFCECDCCE824F8F870F38017C3EF33FFEE33FEED33FDEC33FCEB33FB994002FB0FD8E9EB65
:400C8000300105F8D0E0C448B201C0E00AEC4D4E4F78207B0070C2EAB50A0040BCC0E0120D1FD0F0D0E0200104C4C0E0C4B201C0F01209A2D0F0D5F0EB0209F312081D0AC3
:400CC00090530BFB580A614C0A5D420BFF4F0C07440C07490A76430C0D550B3A460B9A450B04470DDA500A652D0A692E0A8C2B0A6D230A8A200DC32A0A254800000A84E5E4
:400D00000AB4FF03750A06120976FC120976FD120976FE120976FF90004D02042D790AA2D5200314300509B910020404B9080104A2D52006025001042002689202B509004C
:400D40005034C0E07F203003197F30A20272067205500F120D76C202C206C205C2087F30800F300503E9C0E01209B9300503D0E0F9D0E0B509CC3005177F30B9100C120938
:400D8000B97F583004077F788003B908031209B93002057F2D0209B97F202008F87F2B2006F322920280CF7F00B40700500B244DF582E43400F583E0FF22286E756C6C290E
:400DC00000D2011209763001F8C201780930D50108F6020A252D504349581209762403B405004001E4900DD5931209AA743A1209AAD203750904020BFB9001D2EFF0900187
:400E0000D2E0FFEF904C5F93FF9001DBEFF09001DBE0FF74AE2FF582E43400F583E0FF9001DCEFF09001D2E0FFEF25E02433F582E43401F583E0FEA3E0FF9001D9EEF0A34C
:400E4000EFF09001D2E0FFEF25E02496F582E43400F583E0FEA3E0FF9001D9E0FCA3E0FDC3ED9FEC9E40359001D2E0FFEF25E02496F582E43400F583E0FEA3E0FF9001D967
:400E8000E0FCA3E0FDC3ED9FFFEC9EFE9001D7EEF0A3EFF09001DB7401F080329001D2E0FFEF25E02496F582E43400F583E0FEA3E0FF9001D9E0FCA3E0FDC3EF9DFFEE9CC0
:400EC000FE9001D7EEF0A3EFF09001DBE4F09001DBE0FFEF70599001D7E0FEA3E0FFD3EF9414EE940040489001D2E0FF748F2FF582E43400F583E0FFEFC39405401C90011B
:400F0000D2E0FF122B249001D2E0FF748F2FF582E43400F583E4F002108F9001D2E0FF748F2FF582E43400F583E004F002108F9001DCE0FF7E009001D7E0FCA3E0FDD3ED71
:400F40009FEC9E401F9001D7E0FEA3E0FFC3EF9414EE9400400302108F9001DBE0FFEF600302108F9001D2E0FFEF25E02496F582E43400F583E0FEA3E0FFE4FCFD7808125D
:400F800007C69001D31207F19001D3E0F8A3E0F9A3E0FAA3E0FB9001D2E0FF74B42FF582E43400F583E0FFE4FCFDFEEB4FFFEA4EFEE94DFDE84CFC9001D31207F19001D345
:400FC000E0F8A3E0F9A3E0FAA3E0FB9001D9E0FEA3E0FFE4FCFDEB2FFFEA3EFEE93DFDE83CFC9001D31207F19001D3E0FCA3E0FDA3E0FEA3E0FFC004C005C006C0079001A1
:40100000D2E0FFEF25E02496F582E43400F583E0FEA3E0FFAB07AA06E4F9F8D007D006D005D004C3EF9BFFEE9AFEED99FDEC98FC9001D31207F19001D3E0FCA3E0FDA3E0D7
:40104000FEA3E0FF78081207B39001D2E0FDED25E02496F582E43400F583EEF0A3EFF09001D3E0FCA3E0FDA3E0FEA3E0FF9001D2E0FE74B42EF582E43400F583EFF0900180
:40108000D2E0FF748F2FF582E43400F583E4F09001DCE0FF7E009001D7E0FCA3E0FDD3ED9FEC9E40469001DBE0FFEF603E9001D7E0FEA3E0FFD3EF94FFEE9400401390011A
:4010C000D2E0FF74BE2FF582E43400F58374FFF0229001D7E0FEA3E0FF9001D2E0FE74BE2EF582E43400F583EFF0229001D2E0FF74BE2FF582E43400F583E4F02290017B35
:40110000EFF090017CEDF090017DEBF090017CE0FF74BE2FF9E43400FA7B0190018CEBF0A3EAF0A3E9F090017BE0FFEF14FF900181EFF090017BE0FFEF04FF900182EFF08B
:4011400090018CE0FBA3E0FAA3E0F990017BE0FFE92FF9E43AFA1205A2FF9000BCEFF090017BE0FFEF70279000BBE4F090018CE0FBA3E0FAA3E0F9900182E0FFE92FF9E41F
:401180003AFA1205A2FF9000BDEFF002121090017DE0FF7E00EF24FFFFEE34FFFE90017BE0FD7C00EFB5052AEEB5042690018CE0FBA3E0FAA3E0F9900181E0FFE92FF9E47C
:4011C0003AFA1205A2FF9000BBEFF09000BDE4F0803E90018CE0FBA3E0FAA3E0F9900181E0FFE92FF9E43AFA1205A2FF9000BBEFF090018CE0FBA3E0FAA3E0F9900182E029
:40120000FFE92FF9E43AFA1205A2FF9000BDEFF0900180E0FF9000BBE0FEEED39F40159000BBE0FF900180E0FEC3EF9EFF9000BBEFF080059000BBE4F09000BCE0FF9001E2
:4012400080E0FEC3EF9EFF9000BCEFF0900180E0FF9000BDE0FEEED39F40159000BDE0FF900180E0FEC3EF9EFF9000BDEFF080059000BDE4F09000BBE0FFAB07E4FAF9F8DF
:401280009000BDE0FFE4FCFDFEC3EF9BFFEE9AFEED99FDEC98FC9001841207F19000BCE0FFAB07E4FAF9F89000BBE0FFE4FCFDFEEF2BFBEE3AFAED39F9EC38F89000BDE0E3
:4012C000FFE4FCFDFEEB2FFFEA3EFEE93DFDE83CFC9001881207F1900184E0FCA3E0FDA3E0FEA3E0FF78081207C6900188E0F8A3E0F9A3E0FAA3E0FB1235D5C004C005C0CF
:4013000006C00790017BE0FF7E00EF7F00FEAB07AA06E4F9F8D007D006D005D004EF2BFFEE3AFEED39FDEC38FC9001881207F1900188E0F8A3E0F9A3E0FAA3E0FB90017E62
:40134000E0FEA3E0FFE4FCFD1206779001881207F1900188E0FCA3E0FDA3E0FEA3E0FFEF2400FFEE347FFEED3400FDEC3400FC78101207B3900183EFF0900183E0FF22902F
:401380000221EFF0900221E0FFEF131313541FFF900223EFF0900221E0FFEF5407FF7401A807088002C333D8FCFF900224EFF0900221E0FFEF904C5F93FF900225EFF09010
:4013C0000225E0FF74A72FF582E43400F583E0FF900226EFF0900225E0FF74B12FF582E43400F583E0FF900227EFF0900225E0FF74AA2FF582E43400F583E0FF900228EF46
:40140000F0900225E0FFEFC39401501A9002227402F0900222E0FF74A42FF582E43400F5837401F0800D900225E0FFEF14FF900222EFF0900223E0FF74AD2FF582E43400EA
:40144000F583E0FF900224E0FEEF5EFFEF6065900227E0FF900226E0FEC3EE9FFF900221E0FE74BE2EF582E43400F583E0FEEEC39F400302152B900223E0FF74AD2FF582FE
:40148000E43400F583C083C082E0FF900224E0FEEEF4FEEF5EFFD082D083EFF0900228E0FF900222E0FE74A42EF582E43400F583EFF08077900227E0FF900226E0FEEE2F5B
:4014C000FF900221E0FE74BE2EF582E43400F583E0FEEED39F403E900222E0FF74A42FF582E43400F583E0FF14F0EFD39401503B900223E0FF74AD2FF582E43400F583C0E8
:4015000083C082E0FF900224E0FEEF4EFFD082D083EFF08016900228E0FF900222E0FE74A42EF582E43400F583EFF0900223E0FF74AD2FF582E43400F583E0FF900224E066
:40154000FEEF5EFFEF60047F0180027F00227B007A4679E81240BCEF4405FD7B007A4679E81240C8750F00E50FC394075042AF0FEF75F005A4246CF582E43441F583AF826A
:40158000AE838E0D8F0EAE0DAF0E8F828E83E493FB740193FA740293F9AE0DAF0E8F828E83740393FC740493FD123D08050F80B77E417F8F1238AE7B007A5879727D007C72
:4015C000031240357B007A5879487D037C001240357B007A58794C7D037C021240357B017A5079031240BCEF4402FD7B017A5079031240C87B017A5079131240BCEF440246
:40160000FD7B017A5079131240C89043A0E0FFEF4440FF9043A0EFF09043C2E0FFEF4410FF9043C2EFF07C4B7DDD7B007A5179C07F0A7E001239DC7C4B7DE77B007A5179C9
:40164000F07F0A7E001239DC7C4B7DF17B007A5179227F087E001239DC7C4B7DF97B007A5179407F0A7E001239DC7C4C7D037B007A5179527F087E001239DC7C4C7D0B7B50
:40168000007A5179607F0A7E001239DC7B017A0C79DB7DC41240C87B017A1679DB7D441240C89044F47401F09046ECE0FFEFC394055006904689743AF090480074C0F012F2
:4016C00019A59048007480F0122FD67B007A4379A0C003C002C0017B007A4379B090002AEBF0A3EAF0A3E9F0D001D002D0037F0E7E001237EE9043B0E0FFEF54FDFF9043A7
:40170000B0EFF02244010D4727C59A440109404000004400ED0000000042010300004400F5404000004400F100000000440105424800004400FD422800004400F9000000EA
:40174000004201010000410205004102060042020700FF42020100FF42020300004401620000000044015A00000000440152000000004401560000000044014E00000000B4
:4017800044015E000000004101460041014400410132004E013300000000000000000000000000004101457F47014737372323232323430141000000410131024E009600F2
:4017C000000000000000000000000000004700B4000000000000004700BE000000000000004100AD004300A7303C3C4300AE181E1E4300B10005054300AA0101014300A44F
:4018000000000041030B0041030A004103680041036F00410374004103780041037D00410382004103870041033900410338FF41038F004401A2016E360044019D00005D50
:40184000C04101A1184401A72EE000004302800000004103A700009001111207F17F007E007D7A7C449001191207F17F007E007D167C4390011D1207F17F007E007D707C82
:40188000419001211207F17F007E007D007C009001251207F17F007E007DE07C409001291207F1900111E0FCA3E0FDA3E0FEA3E0FF12233790012D1207F190012DE0FCA329
:4018C000E0FDA3E0FEA3E0FF900121E0F8A3E0F9A3E0FAA3E0FB1201127B007A5079C37847120112A804A905AA06AB0790011DE0FCA3E0FDA3E0FEA3E0FF12001DC004C001
:4019000005C006C007900162E0FCA3E0FDA3E0FEA3E0FF900125E0F8A3E0F9A3E0FAA3E0FB120112A804A905AA06AB07D007D006D005D0041200219001151207F17F007EA7
:40194000007DDC7C42900115E0F8A3E0F9A3E0FAA3E0FB1202B850107F007E007DDC7C429001151207F1802B7F007E007D3E7C43900115E0F8A3E0F9A3E0FAA3E0FB120240
:40198000B86010400E7F007E007D3E7C439001151207F1900115E0FCA3E0FDA3E0FEA3E0FF12036F227E027F3790023BEEF0A3EFF07B007A4079807F017E007D187C00122D
:4019C0003FB77B007A4079847F177E007D187C00123FB77B007A4079887F1D7E007D197C00123FB79043007402F09040007408F09042007403F07B0C7A0179081240BC9059
:401A000046A1EFF07B007A4279227D087C001240357B007A4279207D517C1012403590023DE4F07F197E007D007C009002371207F190023BE0FEA3E0FF8F828E83E0FCA382
:401A4000E0FDA3E0FEA3E0FFEC4D4E4F605F90023DE0FFEF64036055904225E0FFEF5401FF7E0090023DE0FEEE25E0FEEE4FFFEF5403FF90023DEFF07FE07E017D007C00FD
:401A8000123500900237E0FCA3E0FDA3E0FEA3E0FF7BFF7AFF79FF78FFEF2BFFEE3AFEED39FDEC38FC9002371207F180847B007A4079047D007C011240359040047407F00A
:401AC000904006E4F09040087448F0904004E4F09040017402F09043A2E0FFEF4407FFEFF022900364E4F0905120E0FFEF5480FFEFF0905122E0FFEF54F0FF900364EFF015
:401B0000900364E0FFEF440FFF905122EFF0905123E0FFEF54F0FF900364EFF0900364E0FF905123EFF0905124E0FFEF54F0FF900364EFF0900364E0FF905124EFF0905181
:401B400020E0FFEF54DFFFEFF0905120E0FFEF4440FFEFF07F007E0012390C905120E0FFEF4410FFEFF07F017E0012390C905121E0FF900364EFF0905120E0FFEF54EFFFC3
:401B8000EFF0900364E0FFEF5408FF900364EFF0905120E0FFEF4410FFEFF07F017E0012390C905120E0FFEF54EFFFEFF0900364E0FFEF709F905120E0FFEF54BFFFEFF076
:401BC000905120E0FFEF5480FFEFF0905122E0FFEF54F0FF900364EFF0900364E0FF905122EFF0905123E0FFEF54F0FF900364EFF0900364E0FFEF440FFF905123EFF0904D
:401C00005124E0FFEF54F0FF900364EFF0900364E0FFEF440FFF905124EFF022C0E0C0F0C083C082C085C084C086758600C093759300C0D075D000C000C001C002C003C096
:401C400004C005C006C0071236979001671207F112369790016B1207F112369790016F1207F11236979001731207F190016FE0FCA3E0FDA3E0FEA3E0FF90016BE0F8A3E0BC
:401C8000F9A3E0FAA3E0FB1200217B007A007900784012021BA804A905AA06AB07900167E0FCA3E0FDA3E0FEA3E0FF12001D9001771207F1900173E0F8A3E0F9A3E0FAA3DC
:401CC000E0FB900167E0FCA3E0FDA3E0FEA3E0FF12001D7B597A85794D78381202B85044900173E0F8A3E0F9A3E0FAA3E0FB900167E0FCA3E0FDA3E0FEA3E0FF12001D7B86
:401D0000937A1A795A78381202B860184016900177E0FCA3E0FDA3E0FEA3E0FF121857900166EFF0900166E0FF7E00123CEED007D006D005D004D003D002D001D000D0D0D5
:401D4000D093D086D084D085D082D083D0F0D0E032C0E0C0F0C083C082C085C084C086758600C093759300C0D075D000C000C001C002C003C004C005C006C0071238809075
:401D800000001207F19000001207E590010D1207D912001D9000041207F19000041207D91234939000F11207F19000F11207D9123DAE9000081207F19000041207D9C004E8
:401DC000C005C006C0079000081207D99000111207F1D007D006D005D0041236D59000F11207D912227290000CEFF090000CE0FF7E00123CA09000001207D990010D120735
:401E0000F1900103E475F001120661900103E0FEA3E0FFEF640A4E700E7F007E007D007C009000ED1207F1900101E475F001120661900101E0FEA3E0FFC3EF9440EE648021
:401E4000948640031240D4D007D006D005D004D003D002D001D000D0D0D093D086D084D085D082D083D0F0D0E03275930078007583467582E8E04401F0009046ECE0F9901D
:401E800046FAE0FAB903225420B40012B8001AEA901FFFF07401901FFEF09046F6F0901FFEE06005901FFFE0FA90480074C0F075812190000078007920E4F0A3D8FCD9FA7C
:401EC000EA9001A6F002001175101F7511FD12154E021F0F023AADE493A3F8E493A34003F68001F208DFF48029E493A3F85407240CC8C333C4540F4420C8834004F456806E
:401F00000146F6DFE4800B0102040810204080901704E47E019360BCA3FF543F30E509541FFEE493A360010ECF54C025E060A840B8E493A3FAE493A3F8E493A3C8C582C80E
:401F4000CAC583CAF0A3C8C582C8CAC583CADFE9DEE780BE900204E004F07006900203E004F0900203E0FEA3E0FFEF64144E70627D077F001231A57BFF7A397965123093E4
:401F80007D007F001231A57B017A0079C5C003C002C0017BFF7A39796A900028EBF0A3EAF0A3E9F09000F1E0FCA3E0FDA3E0FEA3E0FF90002B1207F1D001D002D0031209F1
:401FC000DB7B017A0079C5123093900203E4F0A3E4F07D007F011231A57B017A0079D9C003C002C0017BFF7A39797D900028EBF0A3EAF0A3E9F09000F5E0FCA3E0FDA3E097
:40200000FEA3E0FF90002B1207F1D001D002D0031209DB7B017A0079D9123093229001DDEFF09001DEEDF09001DFEBF09001E174FFF09001E2E4F09001DDE0FF74BE2FF909
:40204000E43400FA7B019001E3EBF0A3EAF0A3E9F09001E0E4F09001DEE0FF9001E0E0FEEEC39F507A9001E3E0FBA3E0FAA3E0F99001E0E0FFE92FF9E43AFA1205A2FF9085
:4020800001DFE0FEEFD39E404D9001E3E0FBA3E0FAA3E0F99001E0E0FFE92FF9E43AFA1205A2FF9001E2E0FEEFD39E40299001E0E0FF9001E1EFF09001E3E0FBA3E0FAA3D2
:4020C000E0F99001E0E0FFE92FF9E43AFA1205A2FF9001E2EFF09001E0E004F00220569001E1E0FF22123A4A7F021234DA123F19900358EFF0906596E0FFEF4403FFEFF06B
:40210000900358E0FF123D5190652674B8F090654674FFF09065877403F0123F19900358EFF0906597E0FFEF4403FFEFF0906594E0FFEF4403FFEFF0900358E0FF123D51E4
:4021400090652774FFF090654774FFF090650774FFF090652474FFF090655474FFF090654474FFF07F051227787C287D217F051228C67D077F051229FB1241667F07123163
:402180004C7F0812314C7F0912314C906477E0FFEF4404FFEFF0122E4A1233A77F001238227F041238517F00123C502290FFFF120843EFF090FFFE120843851083851182A5
:4021C000A3A3E0FFEF904C4193FF851083851182EFF0851083851182A3A3E0FFEF904C4893FF851083851182A3EFF0851083851182A3A3E0FF1230F0851083851182E0FFCB
:40220000EFB40F098510838511827407F0851083851182E0FFEF25E0244FF582E4344CF583E493FE740193FF8F828E83C083C082E0FF851083851182A3E0FEEEF4FEEF5E9F
:40224000FFD082D083EFF0851083851182A3A3E0FFEF25E02433F582E4344CF583E493FE740193FF8F828E837408F09000031208432290000D1207F17F007E007D7F7C436D
:402280009000151207F17F007E007D207C429000191207F190000D1207D9123DAE90001D1207F190001D1207D99001051207E51201129000191207E5120021C004C005C0A6
:4022C00006C0079000ED1207D99000FD1207E5120112A804A905AA06AB07D007D006D005D0041200219000111207F17F007E007D007C009000111207E51202B850107F00C2
:402300007E007D007C009000111207F1801F9000151207D99000111207E51202B8600E400C9000151207D99000111207F19000111207D912036F229001C61207F17FDA7E6D
:40234000D77DCB7C379001CA1207F19001C6E0F8A3E0F9A3E0FAA3E0FB9001CAE0FCA3E0FDA3E0FEA3E0FF12001D9001CE1207F17F007E007DA07C4090015EE0F8A3E0F915
:40238000A3E0FAA3E0FB1202B8705090014EE0FCA3E0FDA3E0FEA3E0FF9001561207F19001CEE0FCA3E0FDA3E0FEA3E0FF90014E1207F19001C6E0FCA3E0FDA3E0FEA3E009
:4023C000FF90015A1207F19001C6E0FCA3E0FDA3E0FEA3E0FF9001521207F19001C6E0F8A3E0F9A3E0FAA3E0FB9001CAE0FCA3E0FDA3E0FEA3E0FF12001D2290FFFF1208ED
:4024000043EFF090FFFE120843851083851182A3A3E0FFEF904C4193FF851083851182EFF0851083851182A3A3E0FFEF904C4893FF851083851182A3EFF0851083851182B2
:40244000A3A3E0FFEF25E02433F582E4344CF583E493FE740193FF8F828E837409F0851083851182E0FFEFB40F098510838511827407F0851083851182E0FFEF25E0244FB3
:40248000F582E4344CF583E493FE740193FF8F828E83C083C082E0FF851083851182A3E0FEEF4EFFD082D083EFF0851083851182A3A3E0FF12314C900003120843229002CE
:4024C00044EFF0900244E0FFEF904C6693FF900248EFF0900244E0FFEF904C6993FF900249EFF0900248E0FF900249E0FD900244E0FE74A72EF582E43400F583E0FB1220D1
:402500001D900245EFF0900245E0FFEF64FF6054900244E0FFEF25E0246CF582E4344CF583E493FE740193FF90017EEEF0A3EFF0900245E0FF900248E0FD900249E0FB90E2
:402540000244E0FE74AE2EF582E43400F583E0FE900180EEF01210FD7E00900246EEF0A3EFF0800A90024674FFF0A374FFF0900246E0FEA3E0FF2290035DEFF0906477E0FF
:40258000FFEF54FCFFEFF0906514E0FF7E00EF7F00FE90035DE0FDED25E02433F582E43401F583EEF0A3EFF090035DE0FFEF25E02433F582E43401F583C083C082E0FEA387
:4025C000E0FF906504E0FD7C00EE4CFEEF4DFFD082D083EEF0A3EFF090035DE0FFEF25E02433F582E43401F583E0FEA3E0FFC374FF9FFF74FF9EFE90035DE0FDED25E024EA
:4026000033F582E43401F583EEF0A3EFF090035DE0FF1221AC7F00123C50905870E0FFEF4401FFEFF02290023EE4F0A3E4F0900240E4F0A3E4F0900242E4F0A3E4F0123D23
:4026400039EF60030226CE122D7D1237127F01123035900205EFF07F02123035900206EFF07F001224BE7E00900207EEF0A3EFF0900207E0FEA3E0FFEF64FF4E6050900221
:4026800001E0FEA3E0FF900207E0FCA3E0FDED6F7002EC6E6038900207E0FCA3E0FDE41203367B007A0079F0784112021B7B007A00794078401200219000F51207F19002E0
:4026C00007E0FEA3E0FF900201EEF0A3EFF02290FFFF120843EFF090FFFE120843851083851182A3A3E0FFEFD3941F5003D38001C34025851083851182A3A3E0FFEFD39466
:402700001F500A7F017E007D007C0080087F007E007D007C00123A02851083851182A3A3E0FFEF541FFF7E00EF7803CEC313CE13D8F9FFEF24C0FFEE3444FE851083851186
:4027400082EEF0A3EFF0851083851182A3A3E0FFEF5407FF7401A807088002C333D8FCFF851083851182E0FCA3E0FD8D828C83EFF09000031208432290FFFF120843EFF0FD
:4027800090FFFE120843851083851182A3A3E0FFEFD3941F5003D38001C34025851083851182A3A3E0FFEFD3941F500A7F017E007D007C0080087F007E007D007C00123AB1
:4027C00002851083851182A3A3E0FFEF541FFF7E00EF7803CEC313CE13D8F9FFEF24C8FFEE3444FE851083851182EEF0A3EFF0851083851182A3A3E0FFEF5407FF7401A85B
:4028000007088002C333D8FCFF851083851182E0FCA3E0FD8D828C83EFF090000312084322C0E0C0F0C083C082C085C084C086758600C093759300C0D075D000C000C00153
:40284000C002C003C004C005C006C007900132E0FF122577900144E0FFEF5480FF7E00EF4E6010900144E0FFEF54FEFF900144EFF08030900132E0FF122963900132EFF092
:40288000900132E0FFEFC39407500A900132E0FF12354B800E900144E0FFEF54FEFF900144EFF0D007D006D005D004D003D002D001D000D0D0D093D086D084D085D082D0A5
:4028C00083D0F0D0E03290027BEFF090027CECF0A3EDF090027BE0FFEFD3941F5003D38001C3402090027BE0FFEFD3941F500A7F017E007D007C0080087F007E007D007C02
:4029000000123A0290027BE0FFEF541FFF7E00EF25E0FFEE33FEEF2400FFEE3444FEAA06A9077B0112402890027EEEF0A3EFF090027BE0FF7E02EF8EF0A4FFAEF0EF240003
:40294000FFEE3444FEAA06A9077B0190027CE0FEA3E0FFAD07AC0612403790027EE0FEA3E0FF2290FFFF120843EFF090FFFE120843851083851182A3A3E004F0851083858E
:402980001182A3A3E0FFEF6407605F851083851182A3A3E0FFEF131313541FFF851083851182EFF0851083851182A3A3E0FFEF5407FF7401A807088002C333D8FCFF85109E
:4029C00083851182A3EFF0851083851182E0FF74452FF582E43401F583E0FF851083851182A3E0FEEF5EFFEF6087851083851182A3A3E0FF9000031208432290034EEFF0E2
:402A000090034FEDF090034FE0FFEFD394075003D38001C3402090034FE0FFEFD39407500A7F017E007D007C0080087F007E007D007C00123A0290034EE0FFEFD3941F502F
:402A400003D38001C3402090034EE0FFEFD3941F500A7F017E007D007C0080087F007E007D007C00123A0290034FE0FFEF5407FF7E00EF75F020A4FFAEF090034EE0FEEEA0
:402A8000541FFE74802EF582E43444F583EFF02290FFFC1208431207F17F007E807D007C00851083851182E0F8A3E0F9A3E0FAA3E0FBD31207A240409001A7E0FCA3E0FDAE
:402AC000A3E0FEA3E0FF123500851083851182C083C082E0FCA3E0FDA3E0FEA3E0FFC3EF9400FFEE9480FEED9400FDEC9400FCD082D0831207F180A190019DE0FCA3E0FDDF
:402B0000A3E0FEA3E0FF851083851182E0F8A3E0F9A3E0FAA3E0FB120677123500900004120843229002FEEFF09002FEE0FFEF904C5F93FF9002FFEFF09002FEE0FFEF259D
:402B4000E02433F582E43401F583E0FEA3E0FF9002FEE0FDED25E02496F582E43400F583EEF0A3EFF09002FEE0FF74B42FF582E43400F583E4F09002FEE0FF74BE2FF5824E
:402B8000E43400F583E4F09002FFE0FFEFD3940040229002FFE0FF74AA2FF582E43400F583E0FF9002FFE0FE74A32EF582E43400F583EFF0227F287E007D007C00122A9040
:402BC0007F0312344A7F057E007D007C00122A907F0312344A7F0F7E007D007C00122A907F0312344A7F017E007D007C00122A907F0212344A7F057E007D007C00122A906C
:402C00007F061235917F0E1235917F2C1235917F081235917F011235917F0C1235917F031235917F057E007D007C00122A9022906471E0FFEF54F8FF900332EFF09003320B
:402C4000E0FF906471EFF0906471E0FFEF54E7FF900332EFF0900332E0FF906471EFF01240177FFF7EFF7DFF7CFF123BF87F007E007D007C00123BDA7F00123FE912415817
:402C80007F787E007D007C00123C16123F19900333EFF0906493E0FFEF4410FFEFF0900333E0FF123D512290647FE0FFEF54C0FF90030CEFF090030CE0FFEF4409FF9064C6
:402CC0007FEFF090649EE0FFEF4401FFEFF090649FE0FFEF4401FFEFF07FFF7E00123C6C7FFF7E00123C867F007E00123CA090648FE4F0123F1990030DEFF090649FE0FF4C
:402D0000EF4410FFEFF090030DE0FF123D51123E8622906478E0FFEF54C0FF900320EFF0900320E0FFEF4409FF906478EFF0906498E0FFEF4401FFEFF0906499E0FFEF4448
:402D400001FFEFF07FE87E03123CBA7FE87E03123CD47F967E00123CEE906488E4F0123F19900321EFF0906498E0FFEF4410FFEFF0900321E0FF123D51123EC5229002E6F0
:402D8000E4F09002E6E0FFEFC3940750579002E6E0FFEF131313541FFF9002E7EFF09002E6E0FFEF5407FF7401A807088002C333D8FCFF9002E8EFF09002E7E0FF74452FFB
:402DC000F582E43401F583E0FF9002E8E0FEEF5EFFEF60089002E6E0FF120DF99002E6E004F0809E2290FFFF120843EFF090FFFF120843851083851182A3E0FFEF904C5F65
:402E000093FF851083851182EFF0851083851182A3E0FF74472FF582E43401F583E0FF123C50851083851182E0FF74412FF582E43401F583E0FF906557EFF0900131E0FF2A
:402E40001238DC900002120843227F00122F74905840E0FFEF4420FFEFF0800B905840E0FFEF54DFFFEFF0905840E0FFEF54FBFFEFF0800B905840E0FFEF4404FFEFF090C3
:402E80005840E0FFEF4408FFEFF0905AC7E0FFEF54E7FFEFF0800C905AC7E0FFEF4408FFEFF022905AC7E0FFEF4410FFEFF0227F01122F12905842E0FFEF4420FFEFF08033
:402EC0000B905842E0FFEF54DFFFEFF0905842E0FFEF54FBFFEFF0800B905842E0FFEF4404FFEFF0905842E0FFEF4408FFEFF0905AD7E0FFEF54E7FFEFF0905AD7E0FFEF97
:402F00004408FFEFF022905AD7E0FFEF4410FFEFF022900377EFF0900377E0FFEF5403FF905842E0FEEE54FCFEEE4FFF905842EFF0900377E0FFEFB4011D7B0C7A0179128B
:402F40001240BC904634EFF07B0C7A0179161240BC904635EFF0227B0C7A0179B11240BC904634EFF07B0C7A0179B91240BC904635EFF022900386EFF0900386E0FFEF540B
:402F800003FF905840E0FEEE54FCFEEE4FFF905840EFF0900386E0FFEFB4011D7B0C7A0179101240BC904630EFF07B0C7A0179141240BC904631EFF0227B0C7A0179AD1274
:402FC00040BC904630EFF07B0C7A0179B51240BC904631EFF0227B0C7A0179CF1240BC90039CEFF090039CE0FFEF5407FF90586EEFF090039CE0FFEFC4540FFFEF540FFF44
:4030000090586FEFF090514D7401F090516D7430F0905870E4F0905AC37420F0905AD07410F0905AD47402F0905B5B7401F09058767466F02290028FEFF090028FE0FFEF52
:40304000904C6693FF900290EFF090028FE0FFEF904C6993FF900290E0FEEF2EFF900291EFF0900292E4F0900290E0FF12137FEF60069002927401F0900290E004F0900294
:4030800091E0FF900290E0FEEEC39F40DA900292E0FF2290026CEBF0A3EAF0A3E9F090026F7401F090026CE0FBA3E0FAA3E0F91205A2FF900270EFF0900270E0FFEF602F0F
:4030C000900270E0FF12374C90026CE0FBA3E0FAA3E0F990026FE0FFE92FF9E43AFA1205A2FF900270EFF090026FE004F080C92290FFFF120843EFF0851083851182E0FFCD
:40310000EFC3940A503F851083851182E0FFEF25E02415F582E4344CF583E493FE740193FF8F828E83C083C082E0FF851083851182E0FEEE904C2993FEEEF4FEEF5EFFD091
:4031400082D083EFF09000011208432290FFFF120843EFF0851083851182E0FFEFC3940A503C851083851182E0FFEF25E02415F582E4344CF583E493FE740193FF8F828E2C
:4031800083C083C082E0FF851083851182E0FEEE904C2993FEEF4EFFD082D083EFF090000112084322900302EFF0900303EDF0900302E0FFEF12081D31C80031D50131E232
:4031C0000231EF03000031FB900303E0FFEF2480FF12359122900303E0FFEF24C0FF12359122900303E0FFEF2494FF12359122900303E0FFEF24D4FF12359122900365EFEB
:40320000F0121AE2905120E0FFEF4420FFEFF0905120E0FFEF54BFFFEFF0905120E0FFEF54F0FFEFF0905120C083C082E0FF900365E0FEEE4410FEEF4EFFD082D083EFF093
:403240007F017E0012390C905120E0FFEF54EFFFEFF022123F19900359EFF0906597E0FFEF4420FFEFF01240B0123D80123D979043BBE0FFEF4410FFEFF09043ABE0FFEF85
:403280004410FFEFF0905870E0FFEF4401FFEFF0900359E0FF123D517F051226CF906477E0FFEF4480FFEFF022905828E0FFEF540CFF7E00EEC313FEEF13FF90038EEFF022
:4032C000905829E0FFEF5404FF7E00EF64044E700690038EE004F090038EE0FFE4FCFDFEEF2428FFEE3401FEED340CFDEC3400FCA907AA06AB051240BC90460AEFF022C0CF
:40330000E0C0F0C083C082C085C084C086758600C093759300C0D075D000C000C001C002C003C004C005C006C007123D2112398DD007D006D005D004D003D002D001D0007E
:40334000D0D0D093D086D084D085D082D083D0F0D0E032C0E0C0F0C083C082C085C084C086758600C093759300C0D075D000C000C001C002C003C004C005C006C0071240C7
:40338000D412415ED007D006D005D004D003D002D001D000D0D0D093D086D084D085D082D083D0F0D0E0329058287414F080089058297420F08014905829E4F0800D905810
:4033C00029E0FFEF4408FFEFF0800B905829E0FFEF4404FFEFF0905829E0FFEF4402FFEFF0800B905A97E0FFEF4408FFEFF07F007E001239391232A922C0E0C0F0C083C032
:4034000082C085C084C086758600C093759300C0D075D000C000C001C002C003C004C005C006C007124008D007D006D005D004D003D002D001D000D0D0D093D086D084D081
:4034400085D082D083D0F0D0E032900366EFF0905120E0FFEF549FFFEFF0905120E0FFEF54F0FFEFF0905120C083C082E0FF900366E0FEEE4410FEEF4EFFD082D083EFF0DB
:403480007F017E0012390C905120E0FFEF54EFFFEFF02290000D1207F17F257E8D7D277C3F9000111207F17B007A0079A078409000111207D912021B9000151207F190007E
:4034C0000D1207E59000151207D912021B9000191207F19000191207D922900360EFF0900360E0FFEFB4010C906477E0FFEF54EFFFEFF022906477E0FFEF4410FFEFF0222E
:40350000EC4D4E700D78FCEF24E950032840FD22000078C5904800E0C4030354039035479325E0240FF404FBEF28FF78FFEE38FEED38FDEC38FC50D7EF2BFFEE38FEED38E1
:40354000FDEC38FC40F2220502030490FFFF120843EFF0851083851182E0FF122DE5906477E0FFEF4401FFEFF0905870E0FFEF54FEFFEFF0851083851182E0FF1223FB904E
:403580006477E0FFEF4402FFEFF090000112084322900306EFF0900306E0FFEFC4540FFF900307EFF0121AE2900307E0FFEF540FFF900307EFF0900307E0FF12344A9003C3
:4035C00006E0FFEF540FFF900307EFF0900307E0FF12344A22C2D5E830E70FB2D5E4C39BFBE49AFAE499F9E498F8EC30E717B2D512360B120702E4C39BFBE49AFAE499F9EC
:40360000E498F8800312070230D50DE4C39FFFE49EFEE49DFDE49CFC227F7F7EE37DFF7CFF123AEA7F7F7EE37DFF7CFF123B08123F1990036BEFF0906494E0FFEF4410FF5E
:40364000EFF090036BE0FF123D517F00123782123FF97F02123FC9227F9F7E867D017C00123B807F9F7E867D017C00123B9E123F19900379EFF090649DE0FFEF4410FFEFB7
:40368000F0900379E0FF123D517F031237B81240087F02123FD9227F007E247D747C499002091207F11240F2E4120331900209E0F8A3E0F9A3E0FAA3E0FB12021B90020D43
:4036C0001207F112414C90020DE0FCA3E0FDA3E0FEA3E0FF2290000D1207F19000ED1207D9C004C005C006C00790000D1207D99000111207E5120112A804A905AA06AB07C6
:40370000D007D006D005D0041200219000ED1207F122900144E4F090013274FFF0900132E0FF122963900132EFF0900132E0FFEFC394075016900144E0FFEF4401FF9001D9
:4037400044EFF0900132E0FF12354B22900304EFF0121AE2900304E0FFEFC4540FFF900305EFF0900305E0FF1231FC900304E0FFEF540FFF900305EFF0900305E0FF12319C
:40378000FC2290036EEFF090036EE0FFEF5403FF90036EEFF0906475E0FFEF54FCFFEFF0906475C083C082E0FF90036EE0FEEF4EFFD082D083EFF02290037CEFF090037C16
:4037C000E0FFEF5403FF90037CEFF090647AE0FFEF54FCFFEFF090647AC083C082E0FF90037CE0FEEF4EFFD082D083EFF022758600EF4E6027EF60010E75930090002AE0ED
:40380000F595A3E0F585A3E0F5848B938A838982E0A30586F0A31586DFF6DEF4E4F593F5952290038CEFF0905829E0FFEF54FBFFEFF0905829C083C082E0FF90038CE0FE58
:40384000EE5404FEEF4EFFD082D083EFF01232A92290038DEFF0905828E0FFEF54F3FFEFF0905828C083C082E0FF90038DE0FEEE540CFEEF4EFFD082D083EFF01232A922A6
:403880007F007E507DC37C4790000D1207F11240E8E412033190000D1207E512021B9000111207F112414C9000111207D922ACEAADA08E838F82E493F9601CA3E493F5EAFA
:4038C000A3E493F5A0A3E49360F1FAA3E493F8A3E493F2DAF6D9E48DA08CEA2290FFFF120843EFF0851083851182E0FF906525EFF0851083851182E0FFEFC313FF90653575
:40390000EFF090000112084322323232EEFA9001A1E0F88FF0A4FFAEF0E88AF0A42EFEE5F03400FDEF24C9FF78FFEE38FEED38FDE438FC50030235002290038BEFF09058D7
:4039400028E0FFEF54FDFFEFF0905828C083C082E0FF90038BE0FEEE5402FEEF4EFFD082D083EFF022202020200053504545443A20252E31662066742F73202000474F41A6
:403980004C3A20252E31662066742F7300123F917E337FF9123B62123FA47E1C7F1C123BBC123EEF123EDA123F04123EB07F8C7E00123CEE22EFB40A07740D1239C0740A8B
:4039C000309811A899B8130CC2983098FDA899C298B811F63099FDC299F59922758600EF4E601BEF60010E8C838D828B958A858984E493A30586F0A31586DFF5DEF3E4F5D0
:403A0000952290FFFF120843EFF0851083851182E0FF851083851182EFF09046EA7401F09000011208432290035AEFF0900144E4F090035AE0FF900132EFF0900144748105
:403A4000F090035AE0FF12354B2290035CE4F090035CE0FFEFC39407501090035CE0FF1221AC90035CE004F080E522900362E4F0900362E0FFEFC394075010900362E0FF83
:403A8000123C34900362E004F080E52290038AE4F090038AE0FFEFC3940A501090038AE0FF1230F090038AE004F080E522D2AF9044F4E0FFEF54FDFFEFF0123E5C1240DECF
:403AC000123E32121F5412262680F822900316EEF0A3EFF07B027A447906900316E0FEA3E0FFAD07AC06124037229002931207F17B027A647924900293E0FCA3E0FDA3E0BF
:403B0000FEA3E0FF123F45229002971207F17B027A647904900297E0FCA3E0FDA3E0FEA3E0FF123F452290031AEEF0A3EFF07B027A44790290031AE0FEA3E0FFAD07AC06CC
:403B40001240372290031EEEF0A3EFF07B027A44790490031EE0FEA3E0FFAD07AC061240372290032AEEF0A3EFF07B027A44790090032AE0FEA3E0FFAD07AC0612403722B0
:403B80009002A31207F17B027A64792A9002A3E0FCA3E0FDA3E0FEA3E0FF123F45229002A71207F17B027A64790A9002A7E0FCA3E0FDA3E0FEA3E0FF123F4522900330EE5A
:403BC000F0A3EFF07B027A447908900330E0FEA3E0FFAD07AC06124037229002AB1207F17B027A6479009002ABE0FCA3E0FDA3E0FEA3E0FF123F45229002AF1207F17B022C
:403C00007A6479209002AFE0FCA3E0FDA3E0FEA3E0FF123F45229002B31207F17B027A6479309002B3E0FCA3E0FDA3E0FEA3E0FF123F4522900361EFF0900361E0FF123A14
:403C400027123D39EF70FA900361E0FF122B242290FFFF120843EFF0851083851182E0FF905B82EFF09000011208432290030EEEF0A3EFF07B027A64790E90030EE0FCA3AE
:403C8000E0FD12403722900310EEF0A3EFF07B027A64794E900310E0FCA3E0FD12403722900312EEF0A3EFF07B027A64792E900312E0FCA3E0FD12403722900322EEF0A3C4
:403CC000EFF07B027A647908900322E0FCA3E0FD12403722900324EEF0A3EFF07B027A647948900324E0FCA3E0FD12403722900326EEF0A3EFF07B027A647928900326E0AE
:403D0000FCA3E0FD12403722EC4D6011ED60010C8B938A838982E4F0A3DDFCDCFA75930022123F587E1D7F51123ACC123E9B123E717F327E00123CA022900144E0FFEF54C4
:403D400001FF7E00EF64014E70047F0180027F0022EF54016004D2AF8002C2AFEF5402FF9044F4E054FD4FF0229043A7E0FFEF4404FFEFF09043B7E0FFEF4404FFEFF02244
:403D80009043A7E0FFEF4401FFEFF09043B7E0FFEF4401FFEFF0229043A8E0FFEF4404FFEFF09043B8E0FFEF4404FFEFF0229000211207F19000211207E59000F51207D90A
:403DC00012001D22900369EFF0900369E0FFEFC43354E0FF904483EFF022900370EFF0900370E0FFEFC43354E0FF904481EFF022900372EFF0900372E0FFEFC43354E0FF37
:403E0000904482EFF022900375EFF0900375E0FFEFC43354E0FF904480EFF02290037EEFF090037EE0FFEFC43354E0FF904484EFF022123F6B7E327FFF123B26123F7E7EF3
:403E4000337F53123B4422900146E0FFEF70091220E59001467401F01232532290030AE0FFEF7009122BB590030A7401F012404422900368E0FFEF7009122CA7900368743A
:403E800001F01240502290646FE0FFEF30E40B7B027A64795E12402880EC2290036FE0FFEF700912361990036F7401F012406822900374E0FFEF7009122D129003747401BB
:403EC000F012408022906468E0FFEF30E40B7B027A64795812402880EC22900378E0FFEF7009122EAF9003787401F0123D692290037DE0FFEF700912365890037D7401F06A
:403F000012409822900382E0FFEF7009122C2F9003827401F01240A4229044F4E0F84402F0E85402FF10AF012274014FFF228B938A838982E0FFA3E0FEA3E0FDA3E0FC7536
:403F40009300228B938A838982EFF0A3EEF0A3EDF0A3ECF07593002212410D7E397F09123ACC7F07123DC41241062212411B7E397F0A123B267F07123DDA12411422124156
:403F8000297E397F0B123B447F07123DF0124122221241377E417F6A123B627F07123E06124130221241457E417F6B123BBC7F07123E1C12413E228B938A838982EFF0A3A1
:403FC000EEF0A3EDF07593002290036CEFF090036CE0FF906484EFF02290037AEFF090037AE0FF90648DEFF022900380EFF0900380E0FF906483EFF02212414C7E00EF3012
:40400000E3051240E880F2221241527E00EF30E3051240F280F2221241587E00EF30E6051240FC80F2228B938A838982E0FFA3E0FE759300228B938A838982EDF0A3ECF061
:40404000759300227F0C12359190030B7401F02290647FE0FFEF4480FFEFF02290647FE0FFEF547FFFEFF022906475E0FFEF4480FFEFF022906475E0FFEF547FFFEFF02270
:40408000906478E0FFEF4480FFEFF022906478E0FFEF547FFFEFF02290647AE0FFEF4480FFEFF022906471E0FFEF4480FFEFF0229043A2E0FFEF4401FFEFF0228B938A834B
:4040C0008982E0759300FF228B938A838982EDF07593002212405C12416212407422123E47123A6B123712227B027A647944123F30227B027A64794A123F30227B027A6482
:404100007940123F30229044C07408F0229044C87408F0229044C07402F0229044C87402F0229044C07404F0229044C87404F0229044C07401F0229044C87401F022904441
:40414000C07410F0229044C87410F022906464E0FF2290646DE0FF22906463E0FF2212408C2212410D22123A8C223232005100002000513000100100001000011400080094
:404180000140000A00014C0002000150000020290052072040214024A42E7F340261047C20005A01D7040064058367840F882D8D0F8F2D00650804FF05FF07FF14FF17FF39
:4041C00024FF27FF871F0100440401060208023001360238803E414041410249FF4AFF4BFF4DA04F01501858045A045D015F016040628064406540668068406A506BA86C86
:40420000406D206E506FA883019901A703AA01B101B302B601BF01C015C102C9FFCAFFCBFFCDAFCE07CF01D018D280D804D904DA04DB04DC12DD11DF01E040E280E440E580
:4042400040E680E840EA50EBA8EC40ED20EE50EFA801011A002001081720180119401A821B011E02244027502F1037103C024049440847404E017401C006C440CA40CC2050
:40428000CE80D03DD210E20801024A02011C012A0132013E044015410249FF4AFF4BFF4DAF4E074F01501858045A045D015F016040628064406540668068406A506BA86C44
:4042C000406D206E506FA88D019C019F01A202A605B002B401B604B701BE10BF40C015C102C520C6C4C70EC81FC9FFCAFFCBFFCDAFCE07CF01D018D407D804D904DA04DBE8
:4043000004DC01DD11DF05E040E280E440E540E680E840EA50EBA8EC40ED20EE50EFA801033506800A010E0210A0172018801A051E201F08224030803880400843404408D8
:404340004740483049424E0150805108521059105A84610862107B019202984099409B609C08A201A301A410A908AA40AB20AF10B040C010C281C44CCC08CE08D03CD21884
:40438000D60ED806DE08E201E640EA020104491A012E0136013E404052420349FF4AFF4BFF4F0150185403560458045A045B045D225F016040624064406540668068806A3D
:4043C000806C806E80841A86648703882E8A508C2E8E50910A940196789706981A9A649B0FA70DB278B30FB407BA30BB08C052C203C9FFCAFFCBFFCD83CE03CF01D018D20F
:4044000083D804D904DA04DB04DC22DD22DF01E040E240E440E540E680E880EA80EC80EE8001052F04080510070109200E28100219401D101E14250426042E04361037057B
:404440003D084130422043084520462048024C0259465A1063406C046F0574027680874098409C089E80A210A308A912B440C0E0C262C401CA40CCE0CE40D066D218D60FBB
:40448000D8010106524052420349FF4AFF4BFF4D834E034F0150185A045D025F016040624064406540668068806A806C806E80800381038204840187028B108F0C90019112
:4044C0000193029404960297019801991C9D149F0AA006A10FA201A310A502A601A701A804A903AC01AF01B304B401B503B606B718C052C203C5ECC620C80BC9FFCAFFCB13
:40450000FFCD83CE03CF01D018D217D804D904DA04DB04DD02DF01E040E240E440E540E680E880EA80EC80EE8001072D0108038008020A280B101114128119101A091BC0F1
:4045400022E0231029182A402B403108325139563A014110430C45204704480249064C025130695473018E20952098409C089D06A002A308C00CC20EC40FCA0FCC0FCE0FB2
:40458000D066D218E21001084002010C021A04270328042F013004320233023401350138803E044020410549FF4AFF4BFF4DA04F04501852805425580459045A045B045CA3
:4045C000225D225F01604062C06440654066C068C06AC06CC06EC0C020C105C5D2C610C720C82BC9FFCAFFCBFFCDAFCE0FCF04D018DA04DD02DF01E040E2C0E440E540E6F3
:40460000C0E8C0EAC0ECC0EEC0010921054006800C2017201C401D601F0427282C202E8041204520480249024B044E02502252025C405D025F04670876809708B420C0902A
:40464000C240C440CA50D024D218D6D0D820010A580005020A03010A0F0F011003120C160F28032A0C2C052E0A340F37013F4040134104420249FF4AFF4BFF4F0150185222
:4046800083580459045A045B045C015D115F016040624064406540668068806A806C806E8080098206830489018A1F8B028C068E1994019602970F9C049D079E089F08A123
:4046C00002A301A810A908AA06AB07B10FB61FC013C104C202C9FFCAFFCBFFCD83CE03CF01D018D804D904DA04DC11DD01DF01E040E240E440E540E680E880EA80EC80EEC5
:4047000080010B34000203040540078408080B800E100F02100813801408153019101D401F40200127802D102F403784380239803C023E103F02400141144220434144086E
:404740004620474168096A10700191A8940297089B059C209D109F40B540B704C0DAC2ACC443CAA0CC50CEA9D0FFEC10010C47150137013F4040124104420349FF4AFF4B39
:40478000FF4D834E034F01501859045A045D015F016040624064406540668068806A806C806E8083038A018F0395019702A505A702AA01AE01B304B503B601BE40BF10C059
:4047C00013C104C202C5ECC702C813C9FFCAFFCBFFCD83CE03CF01D018D403D604D804D904DA04DB04DC10DD11DF05E040E240E440E540E680E880EA80EC80EE80010D25DF
:404800000304120519402118230826402701282031083704380239803A014114434146044749490551045204595563807A408F409708C002C403CA02CC42CE09D0FFD60FD2
:40484000D801DE01E201E640EA82010E3B4030410249FF4AFF4BFF4DA04F0450185A045D025F01604062C06440654066C068C06AC06CC06EC098049F01AA07AE01B004B48D
:4048800002B501B601C030C102C5D0C620C701C81AC9FFCAFFCBFFCDAFCE0FCF04D018D280D425D804D904DA04DB04DC22DD22DF01E040E2C0E440E540E6C0E8C0EAC0ECB5
:4048C000C0EEC0010F1B0E04160417401C401E041F4027043740400841204304452047044F01552056045C485F01670877408740C240C4C0CC10D066D6D0D82001144105DC
:4049000001063F0B010C2A0F011702180F1A401C3F223024152A03300C3203347035033E153F10403241044560470248125608580459045A045B0F5F01610C62F0630C6572
:404940000C670C6840694C6A406B4C6C906D586F0C9C01A801B401B820C056C540C602C705C816C9FFCAFFCBFFCC02CD20CF05D110D804DA04DF01E040E140E280E480E60C
:404980008001152E0040021009800A080F021088110416081A541F102004320438E839043A10425448804F925008560857405840600261807A4087208C0A90A892089310F9
:4049C0009404972098409B209C08A240C005C283C44ECC02CE0ED007D230D608D808DE0101164E010203040F04270329012A013101320133063F0440014106460A49FF4AC7
:404A0000FF4BFF4C024EF0580459045A045F01624863A168F06AF06CF06EF0851289098B368D248E01910E9201930194019537960297089803990F9C019D0FA002A101A414
:404A400001AA02B10FB201B330B402BE10BF04C062C103C606C702C814D602D804D904DA04DB04DE08DF01E10CE2F0E30CE50CE70CE840E94CEA40EB4CEC90ED58EF0C0174
:404A80001738004009800A59108812201608182019181A101F082040210727A029012E082F183182322438A83F8140044104478049104D104F1050CC5108524057405EC019
:404AC00071017240791092099311950298409C089D089E40A220A508AC02AE21C001C20FC44ECA61CC0FCE9ED016D224DE04EA08EC80011902AF08EC80011A04B880BE4082
:404B0000D804DF01011B041F808F80E010E24001400F02020E080F40310833403782382067808740C040C2A0CCF0CE10D880E21001410F324081088C1094209F02A508AADB
:404B400006AB40AFC0CC10E280E880EA40EC60EE800142065340870296809F02D420E64001430521208E4096809780C81001440407202808C004CA080145048320AF20B016
:404B800008EA010146060040072038109F20C006CE0801470542019410B440D008EA02014803AF40B120EA1001490478018401DE40E240014C039410B201EC01014D038CBC
:404BC000109410E008015007000708060A050C060E0610011A0101510200FF010F0400000400000400000020002020000000000000007F7F0000000000E00004E00000407A
:404C000000010000007F000000000002000202000000003000515C515C515C515C515C515C515C516C5AC35A9340200102040810100110502E502D50285029502A502B506B
:404C40002C05050505050505402001020408105206520E5216521E5226522E5236527E01020000000000020001050101190000000000000000000000000000000000000060
:404C800000000000000000000000000000000000000000000000000000000000000000000000000000000000000000000000000000000000000000000000000000000000F4
:404CC00000000000000000000000000000000000000000000000000000000000000000000000000000000000000000000000000000000000000000000000000000000000B4
:404D00000000000000000000000000000000000000000000000000000000000000000000000000000000000000000000000000000000000000000000000000000000000073
:404D40000000000000000000000000000000000000000000000000000000000000000000000000000000000000000000000000000000000000000000000000000000000033
:0200000480007A
:0200000490006A
:0400000000000005F7
:0200000490105A
:04000000AFAC90BC55
:0200000490303A
:0200000033E0EB
:0200000490501A
:0C00000000011E02806903011E27B449A4
:0200000490402A
:4000000000000000000000000000000000000000000000000000000000000000000000000000000000000000000000000000000000000000000000000000000000000000C0
:00000001FF
